{
  "contractName": "MyTokenTemplate",
  "abi": [
    {
      "inputs": [
        {
          "internalType": "string",
          "name": "_name",
          "type": "string"
        },
        {
          "internalType": "string",
          "name": "_symbol",
          "type": "string"
        },
        {
          "internalType": "string",
          "name": "_uri",
          "type": "string"
        },
        {
          "internalType": "uint256",
          "name": "_totalSupply",
          "type": "uint256"
        }
      ],
      "stateMutability": "nonpayable",
      "type": "constructor"
    },
    {
      "anonymous": false,
      "inputs": [
        {
          "indexed": true,
          "internalType": "address",
          "name": "owner",
          "type": "address"
        },
        {
          "indexed": true,
          "internalType": "address",
          "name": "approved",
          "type": "address"
        },
        {
          "indexed": true,
          "internalType": "uint256",
          "name": "tokenId",
          "type": "uint256"
        }
      ],
      "name": "Approval",
      "type": "event"
    },
    {
      "anonymous": false,
      "inputs": [
        {
          "indexed": true,
          "internalType": "address",
          "name": "owner",
          "type": "address"
        },
        {
          "indexed": true,
          "internalType": "address",
          "name": "operator",
          "type": "address"
        },
        {
          "indexed": false,
          "internalType": "bool",
          "name": "approved",
          "type": "bool"
        }
      ],
      "name": "ApprovalForAll",
      "type": "event"
    },
    {
      "anonymous": false,
      "inputs": [
        {
          "indexed": true,
          "internalType": "address",
          "name": "previousOwner",
          "type": "address"
        },
        {
          "indexed": true,
          "internalType": "address",
          "name": "newOwner",
          "type": "address"
        }
      ],
      "name": "OwnershipTransferred",
      "type": "event"
    },
    {
      "anonymous": false,
      "inputs": [
        {
          "indexed": false,
          "internalType": "address",
          "name": "account",
          "type": "address"
        }
      ],
      "name": "Paused",
      "type": "event"
    },
    {
      "anonymous": false,
      "inputs": [
        {
          "indexed": true,
          "internalType": "address",
          "name": "from",
          "type": "address"
        },
        {
          "indexed": true,
          "internalType": "address",
          "name": "to",
          "type": "address"
        },
        {
          "indexed": true,
          "internalType": "uint256",
          "name": "tokenId",
          "type": "uint256"
        }
      ],
      "name": "Transfer",
      "type": "event"
    },
    {
      "anonymous": false,
      "inputs": [
        {
          "indexed": false,
          "internalType": "address",
          "name": "account",
          "type": "address"
        }
      ],
      "name": "Unpaused",
      "type": "event"
    },
    {
      "inputs": [
        {
          "internalType": "address",
          "name": "to",
          "type": "address"
        },
        {
          "internalType": "uint256",
          "name": "tokenId",
          "type": "uint256"
        }
      ],
      "name": "approve",
      "outputs": [],
      "stateMutability": "nonpayable",
      "type": "function"
    },
    {
      "inputs": [
        {
          "internalType": "address",
          "name": "owner",
          "type": "address"
        }
      ],
      "name": "balanceOf",
      "outputs": [
        {
          "internalType": "uint256",
          "name": "",
          "type": "uint256"
        }
      ],
      "stateMutability": "view",
      "type": "function"
    },
    {
      "inputs": [
        {
          "internalType": "uint256",
          "name": "tokenId",
          "type": "uint256"
        }
      ],
      "name": "getApproved",
      "outputs": [
        {
          "internalType": "address",
          "name": "",
          "type": "address"
        }
      ],
      "stateMutability": "view",
      "type": "function"
    },
    {
      "inputs": [
        {
          "internalType": "address",
          "name": "owner",
          "type": "address"
        },
        {
          "internalType": "address",
          "name": "operator",
          "type": "address"
        }
      ],
      "name": "isApprovedForAll",
      "outputs": [
        {
          "internalType": "bool",
          "name": "",
          "type": "bool"
        }
      ],
      "stateMutability": "view",
      "type": "function"
    },
    {
      "inputs": [],
      "name": "name",
      "outputs": [
        {
          "internalType": "string",
          "name": "",
          "type": "string"
        }
      ],
      "stateMutability": "view",
      "type": "function"
    },
    {
      "inputs": [],
      "name": "owner",
      "outputs": [
        {
          "internalType": "address",
          "name": "",
          "type": "address"
        }
      ],
      "stateMutability": "view",
      "type": "function"
    },
    {
      "inputs": [
        {
          "internalType": "uint256",
          "name": "tokenId",
          "type": "uint256"
        }
      ],
      "name": "ownerOf",
      "outputs": [
        {
          "internalType": "address",
          "name": "",
          "type": "address"
        }
      ],
      "stateMutability": "view",
      "type": "function"
    },
    {
      "inputs": [],
      "name": "paused",
      "outputs": [
        {
          "internalType": "bool",
          "name": "",
          "type": "bool"
        }
      ],
      "stateMutability": "view",
      "type": "function"
    },
    {
      "inputs": [],
      "name": "renounceOwnership",
      "outputs": [],
      "stateMutability": "nonpayable",
      "type": "function"
    },
    {
      "inputs": [
        {
          "internalType": "uint256",
          "name": "tokenId",
          "type": "uint256"
        },
        {
          "internalType": "uint256",
          "name": "salePrice",
          "type": "uint256"
        }
      ],
      "name": "royaltyInfo",
      "outputs": [
        {
          "internalType": "address",
          "name": "",
          "type": "address"
        },
        {
          "internalType": "uint256",
          "name": "",
          "type": "uint256"
        }
      ],
      "stateMutability": "view",
      "type": "function"
    },
    {
      "inputs": [
        {
          "internalType": "address",
          "name": "from",
          "type": "address"
        },
        {
          "internalType": "address",
          "name": "to",
          "type": "address"
        },
        {
          "internalType": "uint256",
          "name": "tokenId",
          "type": "uint256"
        }
      ],
      "name": "safeTransferFrom",
      "outputs": [],
      "stateMutability": "nonpayable",
      "type": "function"
    },
    {
      "inputs": [
        {
          "internalType": "address",
          "name": "from",
          "type": "address"
        },
        {
          "internalType": "address",
          "name": "to",
          "type": "address"
        },
        {
          "internalType": "uint256",
          "name": "tokenId",
          "type": "uint256"
        },
        {
          "internalType": "bytes",
          "name": "data",
          "type": "bytes"
        }
      ],
      "name": "safeTransferFrom",
      "outputs": [],
      "stateMutability": "nonpayable",
      "type": "function"
    },
    {
      "inputs": [
        {
          "internalType": "address",
          "name": "operator",
          "type": "address"
        },
        {
          "internalType": "bool",
          "name": "approved",
          "type": "bool"
        }
      ],
      "name": "setApprovalForAll",
      "outputs": [],
      "stateMutability": "nonpayable",
      "type": "function"
    },
    {
      "inputs": [
        {
          "internalType": "bytes4",
          "name": "interfaceId",
          "type": "bytes4"
        }
      ],
      "name": "supportsInterface",
      "outputs": [
        {
          "internalType": "bool",
          "name": "",
          "type": "bool"
        }
      ],
      "stateMutability": "view",
      "type": "function"
    },
    {
      "inputs": [],
      "name": "symbol",
      "outputs": [
        {
          "internalType": "string",
          "name": "",
          "type": "string"
        }
      ],
      "stateMutability": "view",
      "type": "function"
    },
    {
      "inputs": [],
      "name": "totalSupply",
      "outputs": [
        {
          "internalType": "uint256",
          "name": "",
          "type": "uint256"
        }
      ],
      "stateMutability": "view",
      "type": "function"
    },
    {
      "inputs": [
        {
          "internalType": "address",
          "name": "from",
          "type": "address"
        },
        {
          "internalType": "address",
          "name": "to",
          "type": "address"
        },
        {
          "internalType": "uint256",
          "name": "tokenId",
          "type": "uint256"
        }
      ],
      "name": "transferFrom",
      "outputs": [],
      "stateMutability": "nonpayable",
      "type": "function"
    },
    {
      "inputs": [
        {
          "internalType": "address",
          "name": "newOwner",
          "type": "address"
        }
      ],
      "name": "transferOwnership",
      "outputs": [],
      "stateMutability": "nonpayable",
      "type": "function"
    },
    {
      "inputs": [],
      "name": "uri",
      "outputs": [
        {
          "internalType": "string",
          "name": "",
          "type": "string"
        }
      ],
      "stateMutability": "view",
      "type": "function"
    },
    {
      "inputs": [
        {
          "internalType": "address",
          "name": "_buyer",
          "type": "address"
        },
        {
          "internalType": "uint256",
          "name": "_amount",
          "type": "uint256"
        }
      ],
      "name": "createNFT",
      "outputs": [],
      "stateMutability": "nonpayable",
      "type": "function"
    },
    {
      "inputs": [
        {
          "internalType": "address",
          "name": "_owner",
          "type": "address"
        }
      ],
      "name": "getUserTokensIds",
      "outputs": [
        {
          "internalType": "uint256[]",
          "name": "userTokensIds",
          "type": "uint256[]"
        }
      ],
      "stateMutability": "view",
      "type": "function"
    },
    {
      "inputs": [
        {
          "internalType": "uint256",
          "name": "tokenId",
          "type": "uint256"
        }
      ],
      "name": "tokenURI",
      "outputs": [
        {
          "internalType": "string",
          "name": "",
          "type": "string"
        }
      ],
      "stateMutability": "view",
      "type": "function"
    }
  ],
  "bytecode": "0x60806040523480156200001157600080fd5b506040516200350238038062003502833981810160405281019062000037919062000428565b8383816002908051906020019062000051929190620001a0565b5080600390805190602001906200006a929190620001a0565b5050506000600860006101000a81548160ff021916908315150217905550620000a86200009c620000d260201b60201c565b620000da60201b60201c565b81600b9080519060200190620000c0929190620001a0565b5080600c81905550505050506200055c565b600033905090565b6000600860019054906101000a900473ffffffffffffffffffffffffffffffffffffffff16905081600860016101000a81548173ffffffffffffffffffffffffffffffffffffffff021916908373ffffffffffffffffffffffffffffffffffffffff1602179055508173ffffffffffffffffffffffffffffffffffffffff168173ffffffffffffffffffffffffffffffffffffffff167f8be0079c531659141344cd1fd0a4f28419497f9722a3daafe3b4186f6b6457e060405160405180910390a35050565b828054620001ae9062000526565b90600052602060002090601f016020900481019282620001d257600085556200021e565b82601f10620001ed57805160ff19168380011785556200021e565b828001600101855582156200021e579182015b828111156200021d57825182559160200191906001019062000200565b5b5090506200022d919062000231565b5090565b5b808211156200024c57600081600090555060010162000232565b5090565b6000604051905090565b600080fd5b600080fd5b600080fd5b600080fd5b6000601f19601f8301169050919050565b7f4e487b7100000000000000000000000000000000000000000000000000000000600052604160045260246000fd5b620002b9826200026e565b810181811067ffffffffffffffff82111715620002db57620002da6200027f565b5b80604052505050565b6000620002f062000250565b9050620002fe8282620002ae565b919050565b600067ffffffffffffffff8211156200032157620003206200027f565b5b6200032c826200026e565b9050602081019050919050565b60005b83811015620003595780820151818401526020810190506200033c565b8381111562000369576000848401525b50505050565b600062000386620003808462000303565b620002e4565b905082815260208101848484011115620003a557620003a462000269565b5b620003b284828562000339565b509392505050565b600082601f830112620003d257620003d162000264565b5b8151620003e48482602086016200036f565b91505092915050565b6000819050919050565b6200040281620003ed565b81146200040e57600080fd5b50565b6000815190506200042281620003f7565b92915050565b600080600080608085870312156200044557620004446200025a565b5b600085015167ffffffffffffffff8111156200046657620004656200025f565b5b6200047487828801620003ba565b945050602085015167ffffffffffffffff8111156200049857620004976200025f565b5b620004a687828801620003ba565b935050604085015167ffffffffffffffff811115620004ca57620004c96200025f565b5b620004d887828801620003ba565b9250506060620004eb8782880162000411565b91505092959194509250565b7f4e487b7100000000000000000000000000000000000000000000000000000000600052602260045260246000fd5b600060028204905060018216806200053f57607f821691505b60208210811415620005565762000555620004f7565b5b50919050565b612f96806200056c6000396000f3fe608060405234801561001057600080fd5b50600436106101425760003560e01c806370a08231116100b8578063b88d4fde1161007c578063b88d4fde14610378578063c11c956c14610394578063c87b56dd146103b0578063e985e9c5146103e0578063eac989f814610410578063f2fde38b1461042e57610142565b806370a08231146102e6578063715018a6146103165780638da5cb5b1461032057806395d89b411461033e578063a22cb4651461035c57610142565b806318160ddd1161010a57806318160ddd1461021157806323b872dd1461022f5780632a55205a1461024b57806342842e0e1461027c5780635c975abb146102985780636352211e146102b657610142565b806301ffc9a71461014757806306fdde0314610177578063081812fc14610195578063095ea7b3146101c557806315022a0e146101e1575b600080fd5b610161600480360381019061015c9190611e19565b61044a565b60405161016e9190611e61565b60405180910390f35b61017f61045c565b60405161018c9190611f15565b60405180910390f35b6101af60048036038101906101aa9190611f6d565b6104ee565b6040516101bc9190611fdb565b60405180910390f35b6101df60048036038101906101da9190612022565b610534565b005b6101fb60048036038101906101f69190612062565b61064c565b604051610208919061214d565b60405180910390f35b61021961079f565b604051610226919061217e565b60405180910390f35b61024960048036038101906102449190612199565b6107a5565b005b610265600480360381019061026091906121ec565b610805565b60405161027392919061222c565b60405180910390f35b61029660048036038101906102919190612199565b6109f0565b005b6102a0610a10565b6040516102ad9190611e61565b60405180910390f35b6102d060048036038101906102cb9190611f6d565b610a27565b6040516102dd9190611fdb565b60405180910390f35b61030060048036038101906102fb9190612062565b610aae565b60405161030d919061217e565b60405180910390f35b61031e610b66565b005b610328610b7a565b6040516103359190611fdb565b60405180910390f35b610346610ba4565b6040516103539190611f15565b60405180910390f35b61037660048036038101906103719190612281565b610c36565b005b610392600480360381019061038d91906123f6565b610c4c565b005b6103ae60048036038101906103a99190612022565b610cae565b005b6103ca60048036038101906103c59190611f6d565b610d5d565b6040516103d79190611f15565b60405180910390f35b6103fa60048036038101906103f59190612479565b610d90565b6040516104079190611e61565b60405180910390f35b610418610e24565b6040516104259190611f15565b60405180910390f35b61044860048036038101906104439190612062565b610eb2565b005b600061045582610f36565b9050919050565b60606002805461046b906124e8565b80601f0160208091040260200160405190810160405280929190818152602001828054610497906124e8565b80156104e45780601f106104b9576101008083540402835291602001916104e4565b820191906000526020600020905b8154815290600101906020018083116104c757829003601f168201915b5050505050905090565b60006104f982611018565b6006600083815260200190815260200160002060009054906101000a900473ffffffffffffffffffffffffffffffffffffffff169050919050565b600061053f82610a27565b90508073ffffffffffffffffffffffffffffffffffffffff168373ffffffffffffffffffffffffffffffffffffffff1614156105b0576040517f08c379a00000000000000000000000000000000000000000000000000000000081526004016105a79061258c565b60405180910390fd5b8073ffffffffffffffffffffffffffffffffffffffff166105cf611063565b73ffffffffffffffffffffffffffffffffffffffff1614806105fe57506105fd816105f8611063565b610d90565b5b61063d576040517f08c379a00000000000000000000000000000000000000000000000000000000081526004016106349061261e565b60405180910390fd5b610647838361106b565b505050565b6060600061065983610aae565b905060008114156106b657600067ffffffffffffffff81111561067f5761067e6122cb565b5b6040519080825280602002602001820160405280156106ad5781602001602082028036833780820191505090505b5091505061079a565b60008167ffffffffffffffff8111156106d2576106d16122cb565b5b6040519080825280602002602001820160405280156107005781602001602082028036833780820191505090505b509050600080600190505b600a548111610792578573ffffffffffffffffffffffffffffffffffffffff1661073482610a27565b73ffffffffffffffffffffffffffffffffffffffff16141561077f57808383815181106107645761076361263e565b5b602002602001018181525050818061077b9061269c565b9250505b808061078a9061269c565b91505061070b565b508193505050505b919050565b600c5481565b6107b66107b0611063565b82611124565b6107f5576040517f08c379a00000000000000000000000000000000000000000000000000000000081526004016107ec90612757565b60405180910390fd5b6108008383836111b9565b505050565b6000806000600160008681526020019081526020016000206040518060400160405290816000820160009054906101000a900473ffffffffffffffffffffffffffffffffffffffff1673ffffffffffffffffffffffffffffffffffffffff1673ffffffffffffffffffffffffffffffffffffffff1681526020016000820160149054906101000a90046bffffffffffffffffffffffff166bffffffffffffffffffffffff166bffffffffffffffffffffffff16815250509050600073ffffffffffffffffffffffffffffffffffffffff16816000015173ffffffffffffffffffffffffffffffffffffffff16141561099b5760006040518060400160405290816000820160009054906101000a900473ffffffffffffffffffffffffffffffffffffffff1673ffffffffffffffffffffffffffffffffffffffff1673ffffffffffffffffffffffffffffffffffffffff1681526020016000820160149054906101000a90046bffffffffffffffffffffffff166bffffffffffffffffffffffff166bffffffffffffffffffffffff168152505090505b60006109a56114b3565b6bffffffffffffffffffffffff1682602001516bffffffffffffffffffffffff16866109d19190612777565b6109db9190612800565b90508160000151819350935050509250929050565b610a0b83838360405180602001604052806000815250610c4c565b505050565b6000600860009054906101000a900460ff16905090565b600080610a33836114bd565b9050600073ffffffffffffffffffffffffffffffffffffffff168173ffffffffffffffffffffffffffffffffffffffff161415610aa5576040517f08c379a0000000000000000000000000000000000000000000000000000000008152600401610a9c9061287d565b60405180910390fd5b80915050919050565b60008073ffffffffffffffffffffffffffffffffffffffff168273ffffffffffffffffffffffffffffffffffffffff161415610b1f576040517f08c379a0000000000000000000000000000000000000000000000000000000008152600401610b169061290f565b60405180910390fd5b600560008373ffffffffffffffffffffffffffffffffffffffff1673ffffffffffffffffffffffffffffffffffffffff168152602001908152602001600020549050919050565b610b6e6114fa565b610b786000611578565b565b6000600860019054906101000a900473ffffffffffffffffffffffffffffffffffffffff16905090565b606060038054610bb3906124e8565b80601f0160208091040260200160405190810160405280929190818152602001828054610bdf906124e8565b8015610c2c5780601f10610c0157610100808354040283529160200191610c2c565b820191906000526020600020905b815481529060010190602001808311610c0f57829003601f168201915b5050505050905090565b610c48610c41611063565b838361163e565b5050565b610c5d610c57611063565b83611124565b610c9c576040517f08c379a0000000000000000000000000000000000000000000000000000000008152600401610c9390612757565b60405180910390fd5b610ca8848484846117ab565b50505050565b80610cb96009611807565b600c54610cc6919061292f565b1015610d07576040517f08c379a0000000000000000000000000000000000000000000000000000000008152600401610cfe906129af565b60405180910390fd5b60005b81811015610d4857610d1c6009611815565b6000610d286009611807565b9050610d34848261182b565b508080610d409061269c565b915050610d0a565b50610d536009611807565b600a819055505050565b6060610d6882611018565b600b604051602001610d7a9190612a6e565b6040516020818303038152906040529050919050565b6000600760008473ffffffffffffffffffffffffffffffffffffffff1673ffffffffffffffffffffffffffffffffffffffff16815260200190815260200160002060008373ffffffffffffffffffffffffffffffffffffffff1673ffffffffffffffffffffffffffffffffffffffff16815260200190815260200160002060009054906101000a900460ff16905092915050565b600b8054610e31906124e8565b80601f0160208091040260200160405190810160405280929190818152602001828054610e5d906124e8565b8015610eaa5780601f10610e7f57610100808354040283529160200191610eaa565b820191906000526020600020905b815481529060010190602001808311610e8d57829003601f168201915b505050505081565b610eba6114fa565b600073ffffffffffffffffffffffffffffffffffffffff168173ffffffffffffffffffffffffffffffffffffffff161415610f2a576040517f08c379a0000000000000000000000000000000000000000000000000000000008152600401610f2190612af7565b60405180910390fd5b610f3381611578565b50565b60007f80ac58cd000000000000000000000000000000000000000000000000000000007bffffffffffffffffffffffffffffffffffffffffffffffffffffffff1916827bffffffffffffffffffffffffffffffffffffffffffffffffffffffff1916148061100157507f5b5e139f000000000000000000000000000000000000000000000000000000007bffffffffffffffffffffffffffffffffffffffffffffffffffffffff1916827bffffffffffffffffffffffffffffffffffffffffffffffffffffffff1916145b80611011575061101082611849565b5b9050919050565b611021816118c3565b611060576040517f08c379a00000000000000000000000000000000000000000000000000000000081526004016110579061287d565b60405180910390fd5b50565b600033905090565b816006600083815260200190815260200160002060006101000a81548173ffffffffffffffffffffffffffffffffffffffff021916908373ffffffffffffffffffffffffffffffffffffffff160217905550808273ffffffffffffffffffffffffffffffffffffffff166110de83610a27565b73ffffffffffffffffffffffffffffffffffffffff167f8c5be1e5ebec7d5bd14f71427d1e84f3dd0314c0f7b2291e5b200ac8c7c3b92560405160405180910390a45050565b60008061113083610a27565b90508073ffffffffffffffffffffffffffffffffffffffff168473ffffffffffffffffffffffffffffffffffffffff16148061117257506111718185610d90565b5b806111b057508373ffffffffffffffffffffffffffffffffffffffff16611198846104ee565b73ffffffffffffffffffffffffffffffffffffffff16145b91505092915050565b8273ffffffffffffffffffffffffffffffffffffffff166111d982610a27565b73ffffffffffffffffffffffffffffffffffffffff161461122f576040517f08c379a000000000000000000000000000000000000000000000000000000000815260040161122690612b89565b60405180910390fd5b600073ffffffffffffffffffffffffffffffffffffffff168273ffffffffffffffffffffffffffffffffffffffff16141561129f576040517f08c379a000000000000000000000000000000000000000000000000000000000815260040161129690612c1b565b60405180910390fd5b6112ac8383836001611904565b8273ffffffffffffffffffffffffffffffffffffffff166112cc82610a27565b73ffffffffffffffffffffffffffffffffffffffff1614611322576040517f08c379a000000000000000000000000000000000000000000000000000000000815260040161131990612b89565b60405180910390fd5b6006600082815260200190815260200160002060006101000a81549073ffffffffffffffffffffffffffffffffffffffff02191690556001600560008573ffffffffffffffffffffffffffffffffffffffff1673ffffffffffffffffffffffffffffffffffffffff168152602001908152602001600020600082825403925050819055506001600560008473ffffffffffffffffffffffffffffffffffffffff1673ffffffffffffffffffffffffffffffffffffffff16815260200190815260200160002060008282540192505081905550816004600083815260200190815260200160002060006101000a81548173ffffffffffffffffffffffffffffffffffffffff021916908373ffffffffffffffffffffffffffffffffffffffff160217905550808273ffffffffffffffffffffffffffffffffffffffff168473ffffffffffffffffffffffffffffffffffffffff167fddf252ad1be2c89b69c2b068fc378daa952ba7f163c4a11628f55a4df523b3ef60405160405180910390a46114ae838383600161190a565b505050565b6000612710905090565b60006004600083815260200190815260200160002060009054906101000a900473ffffffffffffffffffffffffffffffffffffffff169050919050565b611502611063565b73ffffffffffffffffffffffffffffffffffffffff16611520610b7a565b73ffffffffffffffffffffffffffffffffffffffff1614611576576040517f08c379a000000000000000000000000000000000000000000000000000000000815260040161156d90612c87565b60405180910390fd5b565b6000600860019054906101000a900473ffffffffffffffffffffffffffffffffffffffff16905081600860016101000a81548173ffffffffffffffffffffffffffffffffffffffff021916908373ffffffffffffffffffffffffffffffffffffffff1602179055508173ffffffffffffffffffffffffffffffffffffffff168173ffffffffffffffffffffffffffffffffffffffff167f8be0079c531659141344cd1fd0a4f28419497f9722a3daafe3b4186f6b6457e060405160405180910390a35050565b8173ffffffffffffffffffffffffffffffffffffffff168373ffffffffffffffffffffffffffffffffffffffff1614156116ad576040517f08c379a00000000000000000000000000000000000000000000000000000000081526004016116a490612cf3565b60405180910390fd5b80600760008573ffffffffffffffffffffffffffffffffffffffff1673ffffffffffffffffffffffffffffffffffffffff16815260200190815260200160002060008473ffffffffffffffffffffffffffffffffffffffff1673ffffffffffffffffffffffffffffffffffffffff16815260200190815260200160002060006101000a81548160ff0219169083151502179055508173ffffffffffffffffffffffffffffffffffffffff168373ffffffffffffffffffffffffffffffffffffffff167f17307eab39ab6107e8899845ad3d59bd9653f200f220920489ca2b5937696c318360405161179e9190611e61565b60405180910390a3505050565b6117b68484846111b9565b6117c284848484611910565b611801576040517f08c379a00000000000000000000000000000000000000000000000000000000081526004016117f890612d85565b60405180910390fd5b50505050565b600081600001549050919050565b6001816000016000828254019250508190555050565b611845828260405180602001604052806000815250611aa7565b5050565b60007f2a55205a000000000000000000000000000000000000000000000000000000007bffffffffffffffffffffffffffffffffffffffffffffffffffffffff1916827bffffffffffffffffffffffffffffffffffffffffffffffffffffffff191614806118bc57506118bb82611b02565b5b9050919050565b60008073ffffffffffffffffffffffffffffffffffffffff166118e5836114bd565b73ffffffffffffffffffffffffffffffffffffffff1614159050919050565b50505050565b50505050565b60006119318473ffffffffffffffffffffffffffffffffffffffff16611b6c565b15611a9a578373ffffffffffffffffffffffffffffffffffffffff1663150b7a0261195a611063565b8786866040518563ffffffff1660e01b815260040161197c9493929190612dfa565b602060405180830381600087803b15801561199657600080fd5b505af19250505080156119c757506040513d601f19601f820116820180604052508101906119c49190612e5b565b60015b611a4a573d80600081146119f7576040519150601f19603f3d011682016040523d82523d6000602084013e6119fc565b606091505b50600081511415611a42576040517f08c379a0000000000000000000000000000000000000000000000000000000008152600401611a3990612d85565b60405180910390fd5b805181602001fd5b63150b7a0260e01b7bffffffffffffffffffffffffffffffffffffffffffffffffffffffff1916817bffffffffffffffffffffffffffffffffffffffffffffffffffffffff191614915050611a9f565b600190505b949350505050565b611ab18383611b8f565b611abe6000848484611910565b611afd576040517f08c379a0000000000000000000000000000000000000000000000000000000008152600401611af490612d85565b60405180910390fd5b505050565b60007f01ffc9a7000000000000000000000000000000000000000000000000000000007bffffffffffffffffffffffffffffffffffffffffffffffffffffffff1916827bffffffffffffffffffffffffffffffffffffffffffffffffffffffff1916149050919050565b6000808273ffffffffffffffffffffffffffffffffffffffff163b119050919050565b600073ffffffffffffffffffffffffffffffffffffffff168273ffffffffffffffffffffffffffffffffffffffff161415611bff576040517f08c379a0000000000000000000000000000000000000000000000000000000008152600401611bf690612ed4565b60405180910390fd5b611c08816118c3565b15611c48576040517f08c379a0000000000000000000000000000000000000000000000000000000008152600401611c3f90612f40565b60405180910390fd5b611c56600083836001611904565b611c5f816118c3565b15611c9f576040517f08c379a0000000000000000000000000000000000000000000000000000000008152600401611c9690612f40565b60405180910390fd5b6001600560008473ffffffffffffffffffffffffffffffffffffffff1673ffffffffffffffffffffffffffffffffffffffff16815260200190815260200160002060008282540192505081905550816004600083815260200190815260200160002060006101000a81548173ffffffffffffffffffffffffffffffffffffffff021916908373ffffffffffffffffffffffffffffffffffffffff160217905550808273ffffffffffffffffffffffffffffffffffffffff16600073ffffffffffffffffffffffffffffffffffffffff167fddf252ad1be2c89b69c2b068fc378daa952ba7f163c4a11628f55a4df523b3ef60405160405180910390a4611da960008383600161190a565b5050565b6000604051905090565b600080fd5b600080fd5b60007fffffffff0000000000000000000000000000000000000000000000000000000082169050919050565b611df681611dc1565b8114611e0157600080fd5b50565b600081359050611e1381611ded565b92915050565b600060208284031215611e2f57611e2e611db7565b5b6000611e3d84828501611e04565b91505092915050565b60008115159050919050565b611e5b81611e46565b82525050565b6000602082019050611e766000830184611e52565b92915050565b600081519050919050565b600082825260208201905092915050565b60005b83811015611eb6578082015181840152602081019050611e9b565b83811115611ec5576000848401525b50505050565b6000601f19601f8301169050919050565b6000611ee782611e7c565b611ef18185611e87565b9350611f01818560208601611e98565b611f0a81611ecb565b840191505092915050565b60006020820190508181036000830152611f2f8184611edc565b905092915050565b6000819050919050565b611f4a81611f37565b8114611f5557600080fd5b50565b600081359050611f6781611f41565b92915050565b600060208284031215611f8357611f82611db7565b5b6000611f9184828501611f58565b91505092915050565b600073ffffffffffffffffffffffffffffffffffffffff82169050919050565b6000611fc582611f9a565b9050919050565b611fd581611fba565b82525050565b6000602082019050611ff06000830184611fcc565b92915050565b611fff81611fba565b811461200a57600080fd5b50565b60008135905061201c81611ff6565b92915050565b6000806040838503121561203957612038611db7565b5b60006120478582860161200d565b925050602061205885828601611f58565b9150509250929050565b60006020828403121561207857612077611db7565b5b60006120868482850161200d565b91505092915050565b600081519050919050565b600082825260208201905092915050565b6000819050602082019050919050565b6120c481611f37565b82525050565b60006120d683836120bb565b60208301905092915050565b6000602082019050919050565b60006120fa8261208f565b612104818561209a565b935061210f836120ab565b8060005b8381101561214057815161212788826120ca565b9750612132836120e2565b925050600181019050612113565b5085935050505092915050565b6000602082019050818103600083015261216781846120ef565b905092915050565b61217881611f37565b82525050565b6000602082019050612193600083018461216f565b92915050565b6000806000606084860312156121b2576121b1611db7565b5b60006121c08682870161200d565b93505060206121d18682870161200d565b92505060406121e286828701611f58565b9150509250925092565b6000806040838503121561220357612202611db7565b5b600061221185828601611f58565b925050602061222285828601611f58565b9150509250929050565b60006040820190506122416000830185611fcc565b61224e602083018461216f565b9392505050565b61225e81611e46565b811461226957600080fd5b50565b60008135905061227b81612255565b92915050565b6000806040838503121561229857612297611db7565b5b60006122a68582860161200d565b92505060206122b78582860161226c565b9150509250929050565b600080fd5b600080fd5b7f4e487b7100000000000000000000000000000000000000000000000000000000600052604160045260246000fd5b61230382611ecb565b810181811067ffffffffffffffff82111715612322576123216122cb565b5b80604052505050565b6000612335611dad565b905061234182826122fa565b919050565b600067ffffffffffffffff821115612361576123606122cb565b5b61236a82611ecb565b9050602081019050919050565b82818337600083830152505050565b600061239961239484612346565b61232b565b9050828152602081018484840111156123b5576123b46122c6565b5b6123c0848285612377565b509392505050565b600082601f8301126123dd576123dc6122c1565b5b81356123ed848260208601612386565b91505092915050565b600080600080608085870312156124105761240f611db7565b5b600061241e8782880161200d565b945050602061242f8782880161200d565b935050604061244087828801611f58565b925050606085013567ffffffffffffffff81111561246157612460611dbc565b5b61246d878288016123c8565b91505092959194509250565b600080604083850312156124905761248f611db7565b5b600061249e8582860161200d565b92505060206124af8582860161200d565b9150509250929050565b7f4e487b7100000000000000000000000000000000000000000000000000000000600052602260045260246000fd5b6000600282049050600182168061250057607f821691505b60208210811415612514576125136124b9565b5b50919050565b7f4552433732313a20617070726f76616c20746f2063757272656e74206f776e6560008201527f7200000000000000000000000000000000000000000000000000000000000000602082015250565b6000612576602183611e87565b91506125818261251a565b604082019050919050565b600060208201905081810360008301526125a581612569565b9050919050565b7f4552433732313a20617070726f76652063616c6c6572206973206e6f7420746f60008201527f6b656e206f776e6572206f7220617070726f76656420666f7220616c6c000000602082015250565b6000612608603d83611e87565b9150612613826125ac565b604082019050919050565b60006020820190508181036000830152612637816125fb565b9050919050565b7f4e487b7100000000000000000000000000000000000000000000000000000000600052603260045260246000fd5b7f4e487b7100000000000000000000000000000000000000000000000000000000600052601160045260246000fd5b60006126a782611f37565b91507fffffffffffffffffffffffffffffffffffffffffffffffffffffffffffffffff8214156126da576126d961266d565b5b600182019050919050565b7f4552433732313a2063616c6c6572206973206e6f7420746f6b656e206f776e6560008201527f72206f7220617070726f76656400000000000000000000000000000000000000602082015250565b6000612741602d83611e87565b915061274c826126e5565b604082019050919050565b6000602082019050818103600083015261277081612734565b9050919050565b600061278282611f37565b915061278d83611f37565b9250817fffffffffffffffffffffffffffffffffffffffffffffffffffffffffffffffff04831182151516156127c6576127c561266d565b5b828202905092915050565b7f4e487b7100000000000000000000000000000000000000000000000000000000600052601260045260246000fd5b600061280b82611f37565b915061281683611f37565b925082612826576128256127d1565b5b828204905092915050565b7f4552433732313a20696e76616c696420746f6b656e2049440000000000000000600082015250565b6000612867601883611e87565b915061287282612831565b602082019050919050565b600060208201905081810360008301526128968161285a565b9050919050565b7f4552433732313a2061646472657373207a65726f206973206e6f74206120766160008201527f6c6964206f776e65720000000000000000000000000000000000000000000000602082015250565b60006128f9602983611e87565b91506129048261289d565b604082019050919050565b60006020820190508181036000830152612928816128ec565b9050919050565b600061293a82611f37565b915061294583611f37565b9250828210156129585761295761266d565b5b828203905092915050565b7f4e6f7420656e6f75676820746f6b656e206c65667420746f2062757900000000600082015250565b6000612999601c83611e87565b91506129a482612963565b602082019050919050565b600060208201905081810360008301526129c88161298c565b9050919050565b600081905092915050565b60008190508160005260206000209050919050565b600081546129fc816124e8565b612a0681866129cf565b94506001821660008114612a215760018114612a3257612a65565b60ff19831686528186019350612a65565b612a3b856129da565b60005b83811015612a5d57815481890152600182019150602081019050612a3e565b838801955050505b50505092915050565b6000612a7a82846129ef565b915081905092915050565b7f4f776e61626c653a206e6577206f776e657220697320746865207a65726f206160008201527f6464726573730000000000000000000000000000000000000000000000000000602082015250565b6000612ae1602683611e87565b9150612aec82612a85565b604082019050919050565b60006020820190508181036000830152612b1081612ad4565b9050919050565b7f4552433732313a207472616e736665722066726f6d20696e636f72726563742060008201527f6f776e6572000000000000000000000000000000000000000000000000000000602082015250565b6000612b73602583611e87565b9150612b7e82612b17565b604082019050919050565b60006020820190508181036000830152612ba281612b66565b9050919050565b7f4552433732313a207472616e7366657220746f20746865207a65726f2061646460008201527f7265737300000000000000000000000000000000000000000000000000000000602082015250565b6000612c05602483611e87565b9150612c1082612ba9565b604082019050919050565b60006020820190508181036000830152612c3481612bf8565b9050919050565b7f4f776e61626c653a2063616c6c6572206973206e6f7420746865206f776e6572600082015250565b6000612c71602083611e87565b9150612c7c82612c3b565b602082019050919050565b60006020820190508181036000830152612ca081612c64565b9050919050565b7f4552433732313a20617070726f766520746f2063616c6c657200000000000000600082015250565b6000612cdd601983611e87565b9150612ce882612ca7565b602082019050919050565b60006020820190508181036000830152612d0c81612cd0565b9050919050565b7f4552433732313a207472616e7366657220746f206e6f6e20455243373231526560008201527f63656976657220696d706c656d656e7465720000000000000000000000000000602082015250565b6000612d6f603283611e87565b9150612d7a82612d13565b604082019050919050565b60006020820190508181036000830152612d9e81612d62565b9050919050565b600081519050919050565b600082825260208201905092915050565b6000612dcc82612da5565b612dd68185612db0565b9350612de6818560208601611e98565b612def81611ecb565b840191505092915050565b6000608082019050612e0f6000830187611fcc565b612e1c6020830186611fcc565b612e29604083018561216f565b8181036060830152612e3b8184612dc1565b905095945050505050565b600081519050612e5581611ded565b92915050565b600060208284031215612e7157612e70611db7565b5b6000612e7f84828501612e46565b91505092915050565b7f4552433732313a206d696e7420746f20746865207a65726f2061646472657373600082015250565b6000612ebe602083611e87565b9150612ec982612e88565b602082019050919050565b60006020820190508181036000830152612eed81612eb1565b9050919050565b7f4552433732313a20746f6b656e20616c7265616479206d696e74656400000000600082015250565b6000612f2a601c83611e87565b9150612f3582612ef4565b602082019050919050565b60006020820190508181036000830152612f5981612f1d565b905091905056fea2646970667358221220b9966a1fc1fed716b3627631dc4da799eb58dadbf5aeaf3e97fa30ffa38420f564736f6c63430008090033",
  "immutableReferences": {},
  "source": "// SPDX-License-Identifier: MIT\npragma solidity ^0.8.9;\n\nimport \"@openzeppelin/contracts/token/ERC721/extensions/ERC721Royalty.sol\";\nimport \"@openzeppelin/contracts/token/ERC721/extensions/ERC721URIStorage.sol\";\nimport \"@openzeppelin/contracts/security/Pausable.sol\";\nimport \"@openzeppelin/contracts/access/Ownable.sol\";\nimport \"@openzeppelin/contracts/utils/Counters.sol\";\n\ncontract MyTokenTemplate is ERC721Royalty, Pausable, Ownable {\n    //Contadores para los IDs de los NFTs\n    using Counters for Counters.Counter;\n    Counters.Counter private _tokensIds;\n\n    uint256 private totalIssuedTokens;\n\n    string public uri;\n    uint256 public totalSupply;\n\n    ////////////////////////////////////\n    //Constructor\n    ////////////////////////////////////\n    constructor(\n        string memory _name,\n        string memory _symbol,\n        string memory _uri,\n        uint256 _totalSupply\n    ) ERC721(_name, _symbol) {\n        uri = _uri;\n        totalSupply = _totalSupply;\n    }\n\n    ////////////////////////////////////\n    //Public Functions\n    ////////////////////////////////////\n\n    function createNFT(address _buyer, uint256 _amount) public {\n        require(\n            totalSupply - _tokensIds.current() >= _amount,\n            \"Not enough token left to buy\"\n        );\n\n        for (uint256 i = 0; i < _amount; i++) {\n            _tokensIds.increment();\n            uint256 newTokenId = _tokensIds.current();\n            _safeMint(_buyer, newTokenId);\n        }\n\n        totalIssuedTokens = _tokensIds.current();\n    }\n\n    function getUserTokensIds(\n        address _owner\n    ) public view returns (uint256[] memory userTokensIds) {\n        uint256 tokenCount = balanceOf(_owner);\n\n        if (tokenCount == 0) {\n            // Return an empty array\n            return new uint256[](0);\n        } else {\n            uint256[] memory result = new uint256[](tokenCount);\n            uint256 resultIndex = 0;\n\n            for (uint256 i = 1; i <= totalIssuedTokens; i++) {\n                if (ownerOf(i) == _owner) {\n                    result[resultIndex] = i;\n                    resultIndex++;\n                }\n            }\n\n            return result;\n        }\n    }\n\n    ////////////////////////////////////\n    //Overrided Functions\n    ////////////////////////////////////\n\n    function tokenURI(\n        uint256 tokenId\n    ) public view override returns (string memory) {\n        _requireMinted(tokenId);\n\n        return string(abi.encodePacked(uri));\n    }\n}\n",
  "sourcePath": "/Users/guillermodeleon/Desktop/WILLY CREDITSONG/Credit Song WEB/CreditSongTeresa-8/src/backend/contracts/MyTokenTemplate.sol",
  "compiler": {
    "name": "solc",
    "version": "0.8.9+commit.e5eed63a.Emscripten.clang"
  },
  "schemaVersion": "3.4.14",
  "updatedAt": "2023-07-26T07:10:32.726Z",
  "devdoc": {
    "kind": "dev",
    "methods": {
      "approve(address,uint256)": {
        "details": "See {IERC721-approve}."
      },
      "balanceOf(address)": {
        "details": "See {IERC721-balanceOf}."
      },
      "getApproved(uint256)": {
        "details": "See {IERC721-getApproved}."
      },
      "isApprovedForAll(address,address)": {
        "details": "See {IERC721-isApprovedForAll}."
      },
      "name()": {
        "details": "See {IERC721Metadata-name}."
      },
      "owner()": {
        "details": "Returns the address of the current owner."
      },
      "ownerOf(uint256)": {
        "details": "See {IERC721-ownerOf}."
      },
      "paused()": {
        "details": "Returns true if the contract is paused, and false otherwise."
      },
      "renounceOwnership()": {
        "details": "Leaves the contract without owner. It will not be possible to call `onlyOwner` functions. Can only be called by the current owner. NOTE: Renouncing ownership will leave the contract without an owner, thereby disabling any functionality that is only available to the owner."
      },
      "royaltyInfo(uint256,uint256)": {
        "details": "Returns how much royalty is owed and to whom, based on a sale price that may be denominated in any unit of exchange. The royalty amount is denominated and should be paid in that same unit of exchange."
      },
      "safeTransferFrom(address,address,uint256)": {
        "details": "See {IERC721-safeTransferFrom}."
      },
      "safeTransferFrom(address,address,uint256,bytes)": {
        "details": "See {IERC721-safeTransferFrom}."
      },
      "setApprovalForAll(address,bool)": {
        "details": "See {IERC721-setApprovalForAll}."
      },
      "supportsInterface(bytes4)": {
        "details": "See {IERC165-supportsInterface}."
      },
      "symbol()": {
        "details": "See {IERC721Metadata-symbol}."
      },
      "tokenURI(uint256)": {
        "details": "See {IERC721Metadata-tokenURI}."
      },
      "transferFrom(address,address,uint256)": {
        "details": "See {IERC721-transferFrom}."
      },
      "transferOwnership(address)": {
        "details": "Transfers ownership of the contract to a new account (`newOwner`). Can only be called by the current owner."
      }
    },
    "version": 1
  },
  "userdoc": {
    "kind": "user",
    "methods": {},
    "version": 1
  }
}