{
  "contractName": "MyTokenRoyalties",
  "abi": [
    {
      "inputs": [
        {
          "internalType": "address",
          "name": "",
          "type": "address"
        },
        {
          "internalType": "uint256",
          "name": "",
          "type": "uint256"
        }
      ],
      "name": "royaltiesInfo",
      "outputs": [
        {
          "internalType": "uint256",
          "name": "totalAssigned",
          "type": "uint256"
        },
        {
          "internalType": "uint256",
          "name": "totalClaimed",
          "type": "uint256"
        },
        {
          "internalType": "uint256",
          "name": "totalIterations",
          "type": "uint256"
        }
      ],
      "stateMutability": "view",
      "type": "function",
      "constant": true
    },
    {
      "inputs": [
        {
          "internalType": "address",
          "name": "_myTokenTemplate",
          "type": "address"
        },
        {
          "internalType": "uint256",
          "name": "totalSupply",
          "type": "uint256"
        },
        {
          "internalType": "uint256",
          "name": "amountPerToken",
          "type": "uint256"
        }
      ],
      "name": "updateAssignedRoyalties",
      "outputs": [],
      "stateMutability": "payable",
      "type": "function",
      "payable": true
    },
    {
      "inputs": [
        {
          "internalType": "address",
          "name": "_myTokenTemplate",
          "type": "address"
        },
        {
          "internalType": "uint256",
          "name": "tokenId",
          "type": "uint256"
        }
      ],
      "name": "getAmountToReceive",
      "outputs": [
        {
          "internalType": "uint256",
          "name": "amountToReceive",
          "type": "uint256"
        }
      ],
      "stateMutability": "nonpayable",
      "type": "function"
    },
    {
      "inputs": [
        {
          "internalType": "address",
          "name": "_myTokenTemplate",
          "type": "address"
        },
        {
          "internalType": "uint256",
          "name": "tokenId",
          "type": "uint256"
        }
      ],
      "name": "getAmountToReceiveDetails",
      "outputs": [
        {
          "internalType": "uint256",
          "name": "amountToReceive",
          "type": "uint256"
        }
      ],
      "stateMutability": "view",
      "type": "function",
      "constant": true
    }
  ],
  "bytecode": "0x608060405234801561001057600080fd5b506107d2806100206000396000f3fe60806040526004361061003f5760003560e01c8063664b08ae1461004457806368924e7c14610083578063733a47c41461009f578063c898e23e146100dc575b600080fd5b34801561005057600080fd5b5061006b60048036038101906100669190610503565b610119565b60405161007a93929190610552565b60405180910390f35b61009d60048036038101906100989190610589565b610150565b005b3480156100ab57600080fd5b506100c660048036038101906100c19190610503565b610247565b6040516100d391906105dc565b60405180910390f35b3480156100e857600080fd5b5061010360048036038101906100fe9190610503565b6103a5565b60405161011091906105dc565b60405180910390f35b6000602052816000526040600020602052806000526040600020600091509150508060000154908060010154908060020154905083565b60005b8281101561024157816000808673ffffffffffffffffffffffffffffffffffffffff1673ffffffffffffffffffffffffffffffffffffffff168152602001908152602001600020600083815260200190815260200160002060000160008282546101bd9190610626565b9250508190555060016000808673ffffffffffffffffffffffffffffffffffffffff1673ffffffffffffffffffffffffffffffffffffffff168152602001908152602001600020600083815260200190815260200160002060020160008282546102279190610626565b9250508190555080806102399061067c565b915050610153565b50505050565b6000806000808573ffffffffffffffffffffffffffffffffffffffff1673ffffffffffffffffffffffffffffffffffffffff168152602001908152602001600020600084815260200190815260200160002060000154905060008060008673ffffffffffffffffffffffffffffffffffffffff1673ffffffffffffffffffffffffffffffffffffffff1681526020019081526020016000206000858152602001908152602001600020600101549050808211610338576040517f08c379a000000000000000000000000000000000000000000000000000000000815260040161032f90610748565b60405180910390fd5b816000808773ffffffffffffffffffffffffffffffffffffffff1673ffffffffffffffffffffffffffffffffffffffff168152602001908152602001600020600086815260200190815260200160002060010181905550808261039b9190610768565b9250505092915050565b6000806000808573ffffffffffffffffffffffffffffffffffffffff1673ffffffffffffffffffffffffffffffffffffffff168152602001908152602001600020600084815260200190815260200160002060000154905060008060008673ffffffffffffffffffffffffffffffffffffffff1673ffffffffffffffffffffffffffffffffffffffff168152602001908152602001600020600085815260200190815260200160002060010154905080826104609190610768565b9250505092915050565b600080fd5b600073ffffffffffffffffffffffffffffffffffffffff82169050919050565b600061049a8261046f565b9050919050565b6104aa8161048f565b81146104b557600080fd5b50565b6000813590506104c7816104a1565b92915050565b6000819050919050565b6104e0816104cd565b81146104eb57600080fd5b50565b6000813590506104fd816104d7565b92915050565b6000806040838503121561051a5761051961046a565b5b6000610528858286016104b8565b9250506020610539858286016104ee565b9150509250929050565b61054c816104cd565b82525050565b60006060820190506105676000830186610543565b6105746020830185610543565b6105816040830184610543565b949350505050565b6000806000606084860312156105a2576105a161046a565b5b60006105b0868287016104b8565b93505060206105c1868287016104ee565b92505060406105d2868287016104ee565b9150509250925092565b60006020820190506105f16000830184610543565b92915050565b7f4e487b7100000000000000000000000000000000000000000000000000000000600052601160045260246000fd5b6000610631826104cd565b915061063c836104cd565b9250827fffffffffffffffffffffffffffffffffffffffffffffffffffffffffffffffff03821115610671576106706105f7565b5b828201905092915050565b6000610687826104cd565b91507fffffffffffffffffffffffffffffffffffffffffffffffffffffffffffffffff8214156106ba576106b96105f7565b5b600182019050919050565b600082825260208201905092915050565b7f546865726520617265206e6f20726f79616c7469657320746f20636c61696d2060008201527f666f72207468697320746f6b656e000000000000000000000000000000000000602082015250565b6000610732602e836106c5565b915061073d826106d6565b604082019050919050565b6000602082019050818103600083015261076181610725565b9050919050565b6000610773826104cd565b915061077e836104cd565b925082821015610791576107906105f7565b5b82820390509291505056fea2646970667358221220eb73d8b3c925d0beaca3667143682baddd97d42125d0a6911c989151e19506c364736f6c63430008090033",
  "immutableReferences": {},
  "source": "// SPDX-License-Identifier: MIT\npragma solidity ^0.8.9;\n\ncontract MyTokenRoyalties {\n    struct RoyaltiesInfo {\n        uint256 totalAssigned;\n        uint256 totalClaimed;\n        uint256 totalIterations;\n    }\n    mapping(address => mapping(uint256 => RoyaltiesInfo)) public royaltiesInfo;\n\n    function updateAssignedRoyalties(\n        address _myTokenTemplate,\n        uint256 totalSupply,\n        uint256 amountPerToken\n    ) public payable {\n        // update the total assigned royalties for each specific token\n        // update the total assigned royalties for each specific token iteration\n        for (uint256 i = 0; i < totalSupply; i++) {\n            royaltiesInfo[_myTokenTemplate][i].totalAssigned += amountPerToken;\n            royaltiesInfo[_myTokenTemplate][i].totalIterations += 1;\n        }\n    }\n\n    function getAmountToReceive(\n        address _myTokenTemplate,\n        uint256 tokenId\n    ) public returns (uint256 amountToReceive) {\n        uint256 assigned = royaltiesInfo[_myTokenTemplate][tokenId]\n            .totalAssigned;\n        uint256 claimed = royaltiesInfo[_myTokenTemplate][tokenId].totalClaimed;\n\n        // Ensure that there are royalties to claim\n        require(\n            assigned > claimed,\n            \"There are no royalties to claim for this token\"\n        );\n\n        // update the claimed royalties for the specific token\n        royaltiesInfo[_myTokenTemplate][tokenId].totalClaimed = assigned;\n\n        amountToReceive = assigned - claimed;\n\n        return amountToReceive;\n    }\n\n    function getAmountToReceiveDetails(\n        address _myTokenTemplate,\n        uint256 tokenId\n    ) public view returns (uint256 amountToReceive) {\n        uint256 assigned = royaltiesInfo[_myTokenTemplate][tokenId]\n            .totalAssigned;\n        uint256 claimed = royaltiesInfo[_myTokenTemplate][tokenId].totalClaimed;\n\n        amountToReceive = assigned - claimed;\n\n        return amountToReceive;\n    }\n}\n",
  "sourcePath": "/Users/guillermodeleon/Desktop/WILLY CREDITSONG/Credit Song WEB/CreditSongTeresa-8/src/backend/contracts/MyTokenRoyalties.sol",
  "compiler": {
    "name": "solc",
    "version": "0.8.9+commit.e5eed63a.Emscripten.clang"
  },
  "schemaVersion": "3.4.14",
  "updatedAt": "2023-07-26T07:13:14.148Z",
  "networkType": "ethereum",
  "devdoc": {
    "kind": "dev",
    "methods": {},
    "version": 1
  },
  "userdoc": {
    "kind": "user",
    "methods": {},
    "version": 1
  }
}