{
  "contractName": "MyTokenFactory",
  "abi": [
    {
      "inputs": [
        {
          "internalType": "address",
          "name": "_myTokenRoyalties",
          "type": "address"
        }
      ],
      "stateMutability": "nonpayable",
      "type": "constructor"
    },
    {
      "inputs": [
        {
          "internalType": "address",
          "name": "",
          "type": "address"
        }
      ],
      "name": "myTokenTemplateExtendeds",
      "outputs": [
        {
          "internalType": "address",
          "name": "contractAddress",
          "type": "address"
        },
        {
          "internalType": "string",
          "name": "name",
          "type": "string"
        },
        {
          "internalType": "string",
          "name": "symbol",
          "type": "string"
        },
        {
          "internalType": "string",
          "name": "uri",
          "type": "string"
        },
        {
          "internalType": "uint256",
          "name": "totalSupply",
          "type": "uint256"
        },
        {
          "internalType": "uint256",
          "name": "availableSupply",
          "type": "uint256"
        },
        {
          "internalType": "uint256",
          "name": "price",
          "type": "uint256"
        },
        {
          "internalType": "uint256",
          "name": "sellBalance",
          "type": "uint256"
        },
        {
          "internalType": "uint256",
          "name": "royaltyBalance",
          "type": "uint256"
        }
      ],
      "stateMutability": "view",
      "type": "function",
      "constant": true
    },
    {
      "inputs": [
        {
          "internalType": "string",
          "name": "_name",
          "type": "string"
        },
        {
          "internalType": "string",
          "name": "_symbol",
          "type": "string"
        },
        {
          "internalType": "string",
          "name": "_uri",
          "type": "string"
        },
        {
          "internalType": "uint256",
          "name": "_totalSupply",
          "type": "uint256"
        },
        {
          "internalType": "uint256",
          "name": "_price",
          "type": "uint256"
        }
      ],
      "name": "createMyTokenTemplate",
      "outputs": [],
      "stateMutability": "nonpayable",
      "type": "function"
    },
    {
      "inputs": [
        {
          "internalType": "address",
          "name": "_address",
          "type": "address"
        }
      ],
      "name": "getUserNFTIds",
      "outputs": [
        {
          "internalType": "uint256[]",
          "name": "numNFTs",
          "type": "uint256[]"
        }
      ],
      "stateMutability": "view",
      "type": "function",
      "constant": true
    },
    {
      "inputs": [],
      "name": "getMyTokenTemplateList",
      "outputs": [
        {
          "internalType": "address[]",
          "name": "",
          "type": "address[]"
        }
      ],
      "stateMutability": "view",
      "type": "function",
      "constant": true
    },
    {
      "inputs": [
        {
          "internalType": "address",
          "name": "_address",
          "type": "address"
        }
      ],
      "name": "getMyTokenTemplateDetails",
      "outputs": [
        {
          "components": [
            {
              "internalType": "address",
              "name": "contractAddress",
              "type": "address"
            },
            {
              "internalType": "string",
              "name": "name",
              "type": "string"
            },
            {
              "internalType": "string",
              "name": "symbol",
              "type": "string"
            },
            {
              "internalType": "string",
              "name": "uri",
              "type": "string"
            },
            {
              "internalType": "uint256",
              "name": "totalSupply",
              "type": "uint256"
            },
            {
              "internalType": "uint256",
              "name": "availableSupply",
              "type": "uint256"
            },
            {
              "internalType": "uint256",
              "name": "price",
              "type": "uint256"
            },
            {
              "internalType": "uint256",
              "name": "sellBalance",
              "type": "uint256"
            },
            {
              "internalType": "uint256",
              "name": "royaltyBalance",
              "type": "uint256"
            }
          ],
          "internalType": "struct MyTokenFactory.MyTokenTemplateExtended",
          "name": "myTokenTemplateExtended",
          "type": "tuple"
        }
      ],
      "stateMutability": "view",
      "type": "function",
      "constant": true
    },
    {
      "inputs": [
        {
          "internalType": "address",
          "name": "_address",
          "type": "address"
        },
        {
          "internalType": "uint256",
          "name": "_amount",
          "type": "uint256"
        }
      ],
      "name": "buyMyTokenTemplateNFTs",
      "outputs": [],
      "stateMutability": "payable",
      "type": "function",
      "payable": true
    },
    {
      "inputs": [
        {
          "internalType": "address",
          "name": "_myTokenTemplate",
          "type": "address"
        }
      ],
      "name": "addMyTokenTemplateRoyaltyBalance",
      "outputs": [],
      "stateMutability": "payable",
      "type": "function",
      "payable": true
    },
    {
      "inputs": [
        {
          "internalType": "address",
          "name": "_myTokenTemplate",
          "type": "address"
        },
        {
          "internalType": "uint256[]",
          "name": "tokenIds",
          "type": "uint256[]"
        }
      ],
      "name": "claimRoyalties",
      "outputs": [],
      "stateMutability": "nonpayable",
      "type": "function"
    },
    {
      "inputs": [
        {
          "internalType": "address",
          "name": "_myTokenTemplate",
          "type": "address"
        },
        {
          "internalType": "uint256",
          "name": "tokenId",
          "type": "uint256"
        }
      ],
      "name": "getRoyaltiesInfo",
      "outputs": [
        {
          "internalType": "uint256",
          "name": "royaltyInfobyToken",
          "type": "uint256"
        }
      ],
      "stateMutability": "view",
      "type": "function",
      "constant": true
    }
  ],
  "bytecode": "0x60806040523480156200001157600080fd5b5060405162005c0838038062005c088339818101604052810190620000379190620000e9565b80600160006101000a81548173ffffffffffffffffffffffffffffffffffffffff021916908373ffffffffffffffffffffffffffffffffffffffff160217905550506200011b565b600080fd5b600073ffffffffffffffffffffffffffffffffffffffff82169050919050565b6000620000b18262000084565b9050919050565b620000c381620000a4565b8114620000cf57600080fd5b50565b600081519050620000e381620000b8565b92915050565b6000602082840312156200010257620001016200007f565b5b60006200011284828501620000d2565b91505092915050565b615add806200012b6000396000f3fe608060405260043610620000925760003560e01c806364a75a65116200006157806364a75a65146200015757806374820e8b14620001875780637786e5ea14620001d3578063e073f0b01462000217578063e6b1fa2a14620002375762000092565b8063025fd367146200009757806335978c4a14620000c557806350e971ab14620000f35780635bef76b91462000113575b600080fd5b348015620000a457600080fd5b50620000c36004803603810190620000bd91906200158e565b6200027b565b005b348015620000d257600080fd5b50620000f16004803603810190620000eb9190620017b3565b62000430565b005b6200011160048036038101906200010b919062001819565b620006da565b005b3480156200012057600080fd5b506200013f60048036038101906200013991906200184b565b6200086e565b6040516200014e9190620018a3565b60405180910390f35b3480156200016457600080fd5b506200016f6200092b565b6040516200017e91906200198e565b60405180910390f35b3480156200019457600080fd5b50620001b36004803603810190620001ad919062001819565b62000ab8565b604051620001ca9998979695949392919062001a56565b60405180910390f35b348015620001e057600080fd5b50620001ff6004803603810190620001f9919062001819565b62000cd6565b6040516200020e919062001c52565b60405180910390f35b6200023560048036038101906200022f91906200184b565b62000f88565b005b3480156200024457600080fd5b506200026360048036038101906200025d919062001819565b6200121a565b60405162000272919062001d33565b60405180910390f35b6000858585856040516200028f90620012bd565b6200029e949392919062001d57565b604051809103906000f080158015620002bb573d6000803e3d6000fd5b5090506000819080600181540180825580915050600190039060005260206000200160009091909190916101000a81548173ffffffffffffffffffffffffffffffffffffffff021916908373ffffffffffffffffffffffffffffffffffffffff1602179055506000600260008373ffffffffffffffffffffffffffffffffffffffff1673ffffffffffffffffffffffffffffffffffffffff1681526020019081526020016000209050818160000160006101000a81548173ffffffffffffffffffffffffffffffffffffffff021916908373ffffffffffffffffffffffffffffffffffffffff16021790555086816001019080519060200190620003c1929190620012cb565b5085816002019080519060200190620003dc929190620012cb565b5084816003019080519060200190620003f7929190620012cb565b50838160040181905550838160050181905550828160060181905550600081600701819055506000816008018190555050505050505050565b6000805b82518110156200064057600083828151811062000456576200045562001db9565b5b602002602001015190503373ffffffffffffffffffffffffffffffffffffffff168573ffffffffffffffffffffffffffffffffffffffff16636352211e836040518263ffffffff1660e01b8152600401620004b29190620018a3565b60206040518083038186803b158015620004cb57600080fd5b505afa158015620004e0573d6000803e3d6000fd5b505050506040513d601f19601f8201168201806040525081019062000506919062001dff565b73ffffffffffffffffffffffffffffffffffffffff16146200055f576040517f08c379a0000000000000000000000000000000000000000000000000000000008152600401620005569062001e81565b60405180910390fd5b6000600160009054906101000a900473ffffffffffffffffffffffffffffffffffffffff1673ffffffffffffffffffffffffffffffffffffffff1663733a47c487846040518363ffffffff1660e01b8152600401620005c092919062001ea3565b602060405180830381600087803b158015620005db57600080fd5b505af1158015620005f0573d6000803e3d6000fd5b505050506040513d601f19601f8201168201806040525081019062000616919062001ee7565b9050808462000626919062001f48565b935050508080620006379062001fa5565b91505062000434565b508047101562000687576040517f08c379a00000000000000000000000000000000000000000000000000000000081526004016200067e9062002069565b60405180910390fd5b60003390508073ffffffffffffffffffffffffffffffffffffffff166108fc839081150290604051600060405180830381858888f19350505050158015620006d3573d6000803e3d6000fd5b5050505050565b34600260008373ffffffffffffffffffffffffffffffffffffffff1673ffffffffffffffffffffffffffffffffffffffff16815260200190815260200160002060080160008282546200072e919062001f48565b92505081905550600034116200077b576040517f08c379a0000000000000000000000000000000000000000000000000000000008152600401620007729062002101565b60405180910390fd5b6000600260008373ffffffffffffffffffffffffffffffffffffffff1673ffffffffffffffffffffffffffffffffffffffff16815260200190815260200160002060040154905060008134620007d2919062002152565b9050600160009054906101000a900473ffffffffffffffffffffffffffffffffffffffff1673ffffffffffffffffffffffffffffffffffffffff166368924e7c8484846040518463ffffffff1660e01b815260040162000835939291906200218a565b600060405180830381600087803b1580156200085057600080fd5b505af115801562000865573d6000803e3d6000fd5b50505050505050565b6000600160009054906101000a900473ffffffffffffffffffffffffffffffffffffffff1673ffffffffffffffffffffffffffffffffffffffff1663c898e23e84846040518363ffffffff1660e01b8152600401620008cf92919062001ea3565b60206040518083038186803b158015620008e857600080fd5b505afa158015620008fd573d6000803e3d6000fd5b505050506040513d601f19601f8201168201806040525081019062000923919062001ee7565b905092915050565b606060008080549050905060008114156200099757600067ffffffffffffffff8111156200095e576200095d6200140c565b5b6040519080825280602002602001820160405280156200098d5781602001602082028036833780820191505090505b5091505062000ab5565b60008167ffffffffffffffff811115620009b657620009b56200140c565b5b604051908082528060200260200182016040528015620009e55781602001602082028036833780820191505090505b5090506000805b8381101562000aad576000818154811062000a0c5762000a0b62001db9565b5b9060005260206000200160009054906101000a900473ffffffffffffffffffffffffffffffffffffffff1683838151811062000a4d5762000a4c62001db9565b5b602002602001019073ffffffffffffffffffffffffffffffffffffffff16908173ffffffffffffffffffffffffffffffffffffffff1681525050818062000a949062001fa5565b925050808062000aa49062001fa5565b915050620009ec565b508193505050505b90565b60026020528060005260406000206000915090508060000160009054906101000a900473ffffffffffffffffffffffffffffffffffffffff169080600101805462000b0390620021f6565b80601f016020809104026020016040519081016040528092919081815260200182805462000b3190620021f6565b801562000b825780601f1062000b565761010080835404028352916020019162000b82565b820191906000526020600020905b81548152906001019060200180831162000b6457829003601f168201915b50505050509080600201805462000b9990620021f6565b80601f016020809104026020016040519081016040528092919081815260200182805462000bc790620021f6565b801562000c185780601f1062000bec5761010080835404028352916020019162000c18565b820191906000526020600020905b81548152906001019060200180831162000bfa57829003601f168201915b50505050509080600301805462000c2f90620021f6565b80601f016020809104026020016040519081016040528092919081815260200182805462000c5d90620021f6565b801562000cae5780601f1062000c825761010080835404028352916020019162000cae565b820191906000526020600020905b81548152906001019060200180831162000c9057829003601f168201915b5050505050908060040154908060050154908060060154908060070154908060080154905089565b62000ce06200135c565b600260008373ffffffffffffffffffffffffffffffffffffffff1673ffffffffffffffffffffffffffffffffffffffff168152602001908152602001600020604051806101200160405290816000820160009054906101000a900473ffffffffffffffffffffffffffffffffffffffff1673ffffffffffffffffffffffffffffffffffffffff1673ffffffffffffffffffffffffffffffffffffffff16815260200160018201805462000d9390620021f6565b80601f016020809104026020016040519081016040528092919081815260200182805462000dc190620021f6565b801562000e125780601f1062000de65761010080835404028352916020019162000e12565b820191906000526020600020905b81548152906001019060200180831162000df457829003601f168201915b5050505050815260200160028201805462000e2d90620021f6565b80601f016020809104026020016040519081016040528092919081815260200182805462000e5b90620021f6565b801562000eac5780601f1062000e805761010080835404028352916020019162000eac565b820191906000526020600020905b81548152906001019060200180831162000e8e57829003601f168201915b5050505050815260200160038201805462000ec790620021f6565b80601f016020809104026020016040519081016040528092919081815260200182805462000ef590620021f6565b801562000f465780601f1062000f1a5761010080835404028352916020019162000f46565b820191906000526020600020905b81548152906001019060200180831162000f2857829003601f168201915b50505050508152602001600482015481526020016005820154815260200160068201548152602001600782015481526020016008820154815250509050919050565b60008290506000821162000fd3576040517f08c379a000000000000000000000000000000000000000000000000000000000815260040162000fca90620022a2565b60405180910390fd5b600260008473ffffffffffffffffffffffffffffffffffffffff1673ffffffffffffffffffffffffffffffffffffffff1681526020019081526020016000206005015482106200105a576040517f08c379a000000000000000000000000000000000000000000000000000000000815260040162001051906200233a565b60405180910390fd5b81600260008573ffffffffffffffffffffffffffffffffffffffff1673ffffffffffffffffffffffffffffffffffffffff16815260200190815260200160002060060154620010aa91906200235c565b3414620010ee576040517f08c379a0000000000000000000000000000000000000000000000000000000008152600401620010e59062002433565b60405180910390fd5b8073ffffffffffffffffffffffffffffffffffffffff1663c11c956c33846040518363ffffffff1660e01b81526004016200112b92919062001ea3565b600060405180830381600087803b1580156200114657600080fd5b505af11580156200115b573d6000803e3d6000fd5b5050505034600260008573ffffffffffffffffffffffffffffffffffffffff1673ffffffffffffffffffffffffffffffffffffffff1681526020019081526020016000206007016000828254620011b3919062001f48565b9250508190555081600260008573ffffffffffffffffffffffffffffffffffffffff1673ffffffffffffffffffffffffffffffffffffffff16815260200190815260200160002060050160008282546200120e919062002455565b92505081905550505050565b606060008290508073ffffffffffffffffffffffffffffffffffffffff166315022a0e336040518263ffffffff1660e01b81526004016200125c919062002490565b60006040518083038186803b1580156200127557600080fd5b505afa1580156200128a573d6000803e3d6000fd5b505050506040513d6000823e3d601f19601f82011682018060405250810190620012b5919062002554565b915050919050565b61350280620025a683390190565b828054620012d990620021f6565b90600052602060002090601f016020900481019282620012fd576000855562001349565b82601f106200131857805160ff191683800117855562001349565b8280016001018555821562001349579182015b82811115620013485782518255916020019190600101906200132b565b5b509050620013589190620013be565b5090565b604051806101200160405280600073ffffffffffffffffffffffffffffffffffffffff16815260200160608152602001606081526020016060815260200160008152602001600081526020016000815260200160008152602001600081525090565b5b80821115620013d9576000816000905550600101620013bf565b5090565b6000604051905090565b600080fd5b600080fd5b600080fd5b600080fd5b6000601f19601f8301169050919050565b7f4e487b7100000000000000000000000000000000000000000000000000000000600052604160045260246000fd5b6200144682620013fb565b810181811067ffffffffffffffff821117156200146857620014676200140c565b5b80604052505050565b60006200147d620013dd565b90506200148b82826200143b565b919050565b600067ffffffffffffffff821115620014ae57620014ad6200140c565b5b620014b982620013fb565b9050602081019050919050565b82818337600083830152505050565b6000620014ec620014e68462001490565b62001471565b9050828152602081018484840111156200150b576200150a620013f6565b5b62001518848285620014c6565b509392505050565b600082601f830112620015385762001537620013f1565b5b81356200154a848260208601620014d5565b91505092915050565b6000819050919050565b620015688162001553565b81146200157457600080fd5b50565b60008135905062001588816200155d565b92915050565b600080600080600060a08688031215620015ad57620015ac620013e7565b5b600086013567ffffffffffffffff811115620015ce57620015cd620013ec565b5b620015dc8882890162001520565b955050602086013567ffffffffffffffff8111156200160057620015ff620013ec565b5b6200160e8882890162001520565b945050604086013567ffffffffffffffff811115620016325762001631620013ec565b5b620016408882890162001520565b9350506060620016538882890162001577565b9250506080620016668882890162001577565b9150509295509295909350565b600073ffffffffffffffffffffffffffffffffffffffff82169050919050565b6000620016a08262001673565b9050919050565b620016b28162001693565b8114620016be57600080fd5b50565b600081359050620016d281620016a7565b92915050565b600067ffffffffffffffff821115620016f657620016f56200140c565b5b602082029050602081019050919050565b600080fd5b6000620017236200171d84620016d8565b62001471565b9050808382526020820190506020840283018581111562001749576200174862001707565b5b835b8181101562001776578062001761888262001577565b8452602084019350506020810190506200174b565b5050509392505050565b600082601f830112620017985762001797620013f1565b5b8135620017aa8482602086016200170c565b91505092915050565b60008060408385031215620017cd57620017cc620013e7565b5b6000620017dd85828601620016c1565b925050602083013567ffffffffffffffff811115620018015762001800620013ec565b5b6200180f8582860162001780565b9150509250929050565b600060208284031215620018325762001831620013e7565b5b60006200184284828501620016c1565b91505092915050565b60008060408385031215620018655762001864620013e7565b5b60006200187585828601620016c1565b9250506020620018888582860162001577565b9150509250929050565b6200189d8162001553565b82525050565b6000602082019050620018ba600083018462001892565b92915050565b600081519050919050565b600082825260208201905092915050565b6000819050602082019050919050565b620018f78162001693565b82525050565b60006200190b8383620018ec565b60208301905092915050565b6000602082019050919050565b60006200193182620018c0565b6200193d8185620018cb565b93506200194a83620018dc565b8060005b8381101562001981578151620019658882620018fd565b9750620019728362001917565b9250506001810190506200194e565b5085935050505092915050565b60006020820190508181036000830152620019aa818462001924565b905092915050565b620019bd8162001693565b82525050565b600081519050919050565b600082825260208201905092915050565b60005b83811015620019ff578082015181840152602081019050620019e2565b8381111562001a0f576000848401525b50505050565b600062001a2282620019c3565b62001a2e8185620019ce565b935062001a40818560208601620019df565b62001a4b81620013fb565b840191505092915050565b60006101208201905062001a6e600083018c620019b2565b818103602083015262001a82818b62001a15565b9050818103604083015262001a98818a62001a15565b9050818103606083015262001aae818962001a15565b905062001abf608083018862001892565b62001ace60a083018762001892565b62001add60c083018662001892565b62001aec60e083018562001892565b62001afc61010083018462001892565b9a9950505050505050505050565b600082825260208201905092915050565b600062001b2882620019c3565b62001b34818562001b0a565b935062001b46818560208601620019df565b62001b5181620013fb565b840191505092915050565b62001b678162001553565b82525050565b60006101208301600083015162001b886000860182620018ec565b506020830151848203602086015262001ba2828262001b1b565b9150506040830151848203604086015262001bbe828262001b1b565b9150506060830151848203606086015262001bda828262001b1b565b915050608083015162001bf1608086018262001b5c565b5060a083015162001c0660a086018262001b5c565b5060c083015162001c1b60c086018262001b5c565b5060e083015162001c3060e086018262001b5c565b5061010083015162001c4761010086018262001b5c565b508091505092915050565b6000602082019050818103600083015262001c6e818462001b6d565b905092915050565b600081519050919050565b600082825260208201905092915050565b6000819050602082019050919050565b600062001cb0838362001b5c565b60208301905092915050565b6000602082019050919050565b600062001cd68262001c76565b62001ce2818562001c81565b935062001cef8362001c92565b8060005b8381101562001d2657815162001d0a888262001ca2565b975062001d178362001cbc565b92505060018101905062001cf3565b5085935050505092915050565b6000602082019050818103600083015262001d4f818462001cc9565b905092915050565b6000608082019050818103600083015262001d73818762001a15565b9050818103602083015262001d89818662001a15565b9050818103604083015262001d9f818562001a15565b905062001db0606083018462001892565b95945050505050565b7f4e487b7100000000000000000000000000000000000000000000000000000000600052603260045260246000fd5b60008151905062001df981620016a7565b92915050565b60006020828403121562001e185762001e17620013e7565b5b600062001e288482850162001de8565b91505092915050565b7f43616c6c6572206e6f7420746865206f776e6572206f6620746f6b656e000000600082015250565b600062001e69601d83620019ce565b915062001e768262001e31565b602082019050919050565b6000602082019050818103600083015262001e9c8162001e5a565b9050919050565b600060408201905062001eba6000830185620019b2565b62001ec9602083018462001892565b9392505050565b60008151905062001ee1816200155d565b92915050565b60006020828403121562001f005762001eff620013e7565b5b600062001f108482850162001ed0565b91505092915050565b7f4e487b7100000000000000000000000000000000000000000000000000000000600052601160045260246000fd5b600062001f558262001553565b915062001f628362001553565b9250827fffffffffffffffffffffffffffffffffffffffffffffffffffffffffffffffff0382111562001f9a5762001f9962001f19565b5b828201905092915050565b600062001fb28262001553565b91507fffffffffffffffffffffffffffffffffffffffffffffffffffffffffffffffff82141562001fe85762001fe762001f19565b5b600182019050919050565b7f436f6e74726163742068617320696e73756666696369656e742062616c616e6360008201527f6500000000000000000000000000000000000000000000000000000000000000602082015250565b600062002051602183620019ce565b91506200205e8262001ff3565b604082019050919050565b60006020820190508181036000830152620020848162002042565b9050919050565b7f526f79616c7479416d6f756e742073686f756c6420626520626967676572207460008201527f68616e2030000000000000000000000000000000000000000000000000000000602082015250565b6000620020e9602583620019ce565b9150620020f6826200208b565b604082019050919050565b600060208201905081810360008301526200211c81620020da565b9050919050565b7f4e487b7100000000000000000000000000000000000000000000000000000000600052601260045260246000fd5b60006200215f8262001553565b91506200216c8362001553565b9250826200217f576200217e62002123565b5b828204905092915050565b6000606082019050620021a16000830186620019b2565b620021b0602083018562001892565b620021bf604083018462001892565b949350505050565b7f4e487b7100000000000000000000000000000000000000000000000000000000600052602260045260246000fd5b600060028204905060018216806200220f57607f821691505b60208210811415620022265762002225620021c7565b5b50919050565b7f54686520616d6f756e74206f6620746f6b656e732073686f756c64206265206260008201527f6967676572207468616e20300000000000000000000000000000000000000000602082015250565b60006200228a602c83620019ce565b915062002297826200222c565b604082019050919050565b60006020820190508181036000830152620022bd816200227b565b9050919050565b7f54686520616d6f756e74206f6620746f6b656e732073686f756c64206265206c60008201527f657373207468616e20617661696c61626c6520737570706c7900000000000000602082015250565b600062002322603983620019ce565b91506200232f82620022c4565b604082019050919050565b60006020820190508181036000830152620023558162002313565b9050919050565b6000620023698262001553565b9150620023768362001553565b9250817fffffffffffffffffffffffffffffffffffffffffffffffffffffffffffffffff0483118215151615620023b257620023b162001f19565b5b828202905092915050565b7f596f752073686f756c64207061792074686520657861637420616d6f756e742060008201527f6f66206d6f6e6579000000000000000000000000000000000000000000000000602082015250565b60006200241b602883620019ce565b91506200242882620023bd565b604082019050919050565b600060208201905081810360008301526200244e816200240c565b9050919050565b6000620024628262001553565b91506200246f8362001553565b92508282101562002485576200248462001f19565b5b828203905092915050565b6000602082019050620024a76000830184620019b2565b92915050565b6000620024c4620024be84620016d8565b62001471565b90508083825260208201905060208402830185811115620024ea57620024e962001707565b5b835b8181101562002517578062002502888262001ed0565b845260208401935050602081019050620024ec565b5050509392505050565b600082601f830112620025395762002538620013f1565b5b81516200254b848260208601620024ad565b91505092915050565b6000602082840312156200256d576200256c620013e7565b5b600082015167ffffffffffffffff8111156200258e576200258d620013ec565b5b6200259c8482850162002521565b9150509291505056fe60806040523480156200001157600080fd5b506040516200350238038062003502833981810160405281019062000037919062000428565b8383816002908051906020019062000051929190620001a0565b5080600390805190602001906200006a929190620001a0565b5050506000600860006101000a81548160ff021916908315150217905550620000a86200009c620000d260201b60201c565b620000da60201b60201c565b81600b9080519060200190620000c0929190620001a0565b5080600c81905550505050506200055c565b600033905090565b6000600860019054906101000a900473ffffffffffffffffffffffffffffffffffffffff16905081600860016101000a81548173ffffffffffffffffffffffffffffffffffffffff021916908373ffffffffffffffffffffffffffffffffffffffff1602179055508173ffffffffffffffffffffffffffffffffffffffff168173ffffffffffffffffffffffffffffffffffffffff167f8be0079c531659141344cd1fd0a4f28419497f9722a3daafe3b4186f6b6457e060405160405180910390a35050565b828054620001ae9062000526565b90600052602060002090601f016020900481019282620001d257600085556200021e565b82601f10620001ed57805160ff19168380011785556200021e565b828001600101855582156200021e579182015b828111156200021d57825182559160200191906001019062000200565b5b5090506200022d919062000231565b5090565b5b808211156200024c57600081600090555060010162000232565b5090565b6000604051905090565b600080fd5b600080fd5b600080fd5b600080fd5b6000601f19601f8301169050919050565b7f4e487b7100000000000000000000000000000000000000000000000000000000600052604160045260246000fd5b620002b9826200026e565b810181811067ffffffffffffffff82111715620002db57620002da6200027f565b5b80604052505050565b6000620002f062000250565b9050620002fe8282620002ae565b919050565b600067ffffffffffffffff8211156200032157620003206200027f565b5b6200032c826200026e565b9050602081019050919050565b60005b83811015620003595780820151818401526020810190506200033c565b8381111562000369576000848401525b50505050565b600062000386620003808462000303565b620002e4565b905082815260208101848484011115620003a557620003a462000269565b5b620003b284828562000339565b509392505050565b600082601f830112620003d257620003d162000264565b5b8151620003e48482602086016200036f565b91505092915050565b6000819050919050565b6200040281620003ed565b81146200040e57600080fd5b50565b6000815190506200042281620003f7565b92915050565b600080600080608085870312156200044557620004446200025a565b5b600085015167ffffffffffffffff8111156200046657620004656200025f565b5b6200047487828801620003ba565b945050602085015167ffffffffffffffff8111156200049857620004976200025f565b5b620004a687828801620003ba565b935050604085015167ffffffffffffffff811115620004ca57620004c96200025f565b5b620004d887828801620003ba565b9250506060620004eb8782880162000411565b91505092959194509250565b7f4e487b7100000000000000000000000000000000000000000000000000000000600052602260045260246000fd5b600060028204905060018216806200053f57607f821691505b60208210811415620005565762000555620004f7565b5b50919050565b612f96806200056c6000396000f3fe608060405234801561001057600080fd5b50600436106101425760003560e01c806370a08231116100b8578063b88d4fde1161007c578063b88d4fde14610378578063c11c956c14610394578063c87b56dd146103b0578063e985e9c5146103e0578063eac989f814610410578063f2fde38b1461042e57610142565b806370a08231146102e6578063715018a6146103165780638da5cb5b1461032057806395d89b411461033e578063a22cb4651461035c57610142565b806318160ddd1161010a57806318160ddd1461021157806323b872dd1461022f5780632a55205a1461024b57806342842e0e1461027c5780635c975abb146102985780636352211e146102b657610142565b806301ffc9a71461014757806306fdde0314610177578063081812fc14610195578063095ea7b3146101c557806315022a0e146101e1575b600080fd5b610161600480360381019061015c9190611e19565b61044a565b60405161016e9190611e61565b60405180910390f35b61017f61045c565b60405161018c9190611f15565b60405180910390f35b6101af60048036038101906101aa9190611f6d565b6104ee565b6040516101bc9190611fdb565b60405180910390f35b6101df60048036038101906101da9190612022565b610534565b005b6101fb60048036038101906101f69190612062565b61064c565b604051610208919061214d565b60405180910390f35b61021961079f565b604051610226919061217e565b60405180910390f35b61024960048036038101906102449190612199565b6107a5565b005b610265600480360381019061026091906121ec565b610805565b60405161027392919061222c565b60405180910390f35b61029660048036038101906102919190612199565b6109f0565b005b6102a0610a10565b6040516102ad9190611e61565b60405180910390f35b6102d060048036038101906102cb9190611f6d565b610a27565b6040516102dd9190611fdb565b60405180910390f35b61030060048036038101906102fb9190612062565b610aae565b60405161030d919061217e565b60405180910390f35b61031e610b66565b005b610328610b7a565b6040516103359190611fdb565b60405180910390f35b610346610ba4565b6040516103539190611f15565b60405180910390f35b61037660048036038101906103719190612281565b610c36565b005b610392600480360381019061038d91906123f6565b610c4c565b005b6103ae60048036038101906103a99190612022565b610cae565b005b6103ca60048036038101906103c59190611f6d565b610d5d565b6040516103d79190611f15565b60405180910390f35b6103fa60048036038101906103f59190612479565b610d90565b6040516104079190611e61565b60405180910390f35b610418610e24565b6040516104259190611f15565b60405180910390f35b61044860048036038101906104439190612062565b610eb2565b005b600061045582610f36565b9050919050565b60606002805461046b906124e8565b80601f0160208091040260200160405190810160405280929190818152602001828054610497906124e8565b80156104e45780601f106104b9576101008083540402835291602001916104e4565b820191906000526020600020905b8154815290600101906020018083116104c757829003601f168201915b5050505050905090565b60006104f982611018565b6006600083815260200190815260200160002060009054906101000a900473ffffffffffffffffffffffffffffffffffffffff169050919050565b600061053f82610a27565b90508073ffffffffffffffffffffffffffffffffffffffff168373ffffffffffffffffffffffffffffffffffffffff1614156105b0576040517f08c379a00000000000000000000000000000000000000000000000000000000081526004016105a79061258c565b60405180910390fd5b8073ffffffffffffffffffffffffffffffffffffffff166105cf611063565b73ffffffffffffffffffffffffffffffffffffffff1614806105fe57506105fd816105f8611063565b610d90565b5b61063d576040517f08c379a00000000000000000000000000000000000000000000000000000000081526004016106349061261e565b60405180910390fd5b610647838361106b565b505050565b6060600061065983610aae565b905060008114156106b657600067ffffffffffffffff81111561067f5761067e6122cb565b5b6040519080825280602002602001820160405280156106ad5781602001602082028036833780820191505090505b5091505061079a565b60008167ffffffffffffffff8111156106d2576106d16122cb565b5b6040519080825280602002602001820160405280156107005781602001602082028036833780820191505090505b509050600080600190505b600a548111610792578573ffffffffffffffffffffffffffffffffffffffff1661073482610a27565b73ffffffffffffffffffffffffffffffffffffffff16141561077f57808383815181106107645761076361263e565b5b602002602001018181525050818061077b9061269c565b9250505b808061078a9061269c565b91505061070b565b508193505050505b919050565b600c5481565b6107b66107b0611063565b82611124565b6107f5576040517f08c379a00000000000000000000000000000000000000000000000000000000081526004016107ec90612757565b60405180910390fd5b6108008383836111b9565b505050565b6000806000600160008681526020019081526020016000206040518060400160405290816000820160009054906101000a900473ffffffffffffffffffffffffffffffffffffffff1673ffffffffffffffffffffffffffffffffffffffff1673ffffffffffffffffffffffffffffffffffffffff1681526020016000820160149054906101000a90046bffffffffffffffffffffffff166bffffffffffffffffffffffff166bffffffffffffffffffffffff16815250509050600073ffffffffffffffffffffffffffffffffffffffff16816000015173ffffffffffffffffffffffffffffffffffffffff16141561099b5760006040518060400160405290816000820160009054906101000a900473ffffffffffffffffffffffffffffffffffffffff1673ffffffffffffffffffffffffffffffffffffffff1673ffffffffffffffffffffffffffffffffffffffff1681526020016000820160149054906101000a90046bffffffffffffffffffffffff166bffffffffffffffffffffffff166bffffffffffffffffffffffff168152505090505b60006109a56114b3565b6bffffffffffffffffffffffff1682602001516bffffffffffffffffffffffff16866109d19190612777565b6109db9190612800565b90508160000151819350935050509250929050565b610a0b83838360405180602001604052806000815250610c4c565b505050565b6000600860009054906101000a900460ff16905090565b600080610a33836114bd565b9050600073ffffffffffffffffffffffffffffffffffffffff168173ffffffffffffffffffffffffffffffffffffffff161415610aa5576040517f08c379a0000000000000000000000000000000000000000000000000000000008152600401610a9c9061287d565b60405180910390fd5b80915050919050565b60008073ffffffffffffffffffffffffffffffffffffffff168273ffffffffffffffffffffffffffffffffffffffff161415610b1f576040517f08c379a0000000000000000000000000000000000000000000000000000000008152600401610b169061290f565b60405180910390fd5b600560008373ffffffffffffffffffffffffffffffffffffffff1673ffffffffffffffffffffffffffffffffffffffff168152602001908152602001600020549050919050565b610b6e6114fa565b610b786000611578565b565b6000600860019054906101000a900473ffffffffffffffffffffffffffffffffffffffff16905090565b606060038054610bb3906124e8565b80601f0160208091040260200160405190810160405280929190818152602001828054610bdf906124e8565b8015610c2c5780601f10610c0157610100808354040283529160200191610c2c565b820191906000526020600020905b815481529060010190602001808311610c0f57829003601f168201915b5050505050905090565b610c48610c41611063565b838361163e565b5050565b610c5d610c57611063565b83611124565b610c9c576040517f08c379a0000000000000000000000000000000000000000000000000000000008152600401610c9390612757565b60405180910390fd5b610ca8848484846117ab565b50505050565b80610cb96009611807565b600c54610cc6919061292f565b1015610d07576040517f08c379a0000000000000000000000000000000000000000000000000000000008152600401610cfe906129af565b60405180910390fd5b60005b81811015610d4857610d1c6009611815565b6000610d286009611807565b9050610d34848261182b565b508080610d409061269c565b915050610d0a565b50610d536009611807565b600a819055505050565b6060610d6882611018565b600b604051602001610d7a9190612a6e565b6040516020818303038152906040529050919050565b6000600760008473ffffffffffffffffffffffffffffffffffffffff1673ffffffffffffffffffffffffffffffffffffffff16815260200190815260200160002060008373ffffffffffffffffffffffffffffffffffffffff1673ffffffffffffffffffffffffffffffffffffffff16815260200190815260200160002060009054906101000a900460ff16905092915050565b600b8054610e31906124e8565b80601f0160208091040260200160405190810160405280929190818152602001828054610e5d906124e8565b8015610eaa5780601f10610e7f57610100808354040283529160200191610eaa565b820191906000526020600020905b815481529060010190602001808311610e8d57829003601f168201915b505050505081565b610eba6114fa565b600073ffffffffffffffffffffffffffffffffffffffff168173ffffffffffffffffffffffffffffffffffffffff161415610f2a576040517f08c379a0000000000000000000000000000000000000000000000000000000008152600401610f2190612af7565b60405180910390fd5b610f3381611578565b50565b60007f80ac58cd000000000000000000000000000000000000000000000000000000007bffffffffffffffffffffffffffffffffffffffffffffffffffffffff1916827bffffffffffffffffffffffffffffffffffffffffffffffffffffffff1916148061100157507f5b5e139f000000000000000000000000000000000000000000000000000000007bffffffffffffffffffffffffffffffffffffffffffffffffffffffff1916827bffffffffffffffffffffffffffffffffffffffffffffffffffffffff1916145b80611011575061101082611849565b5b9050919050565b611021816118c3565b611060576040517f08c379a00000000000000000000000000000000000000000000000000000000081526004016110579061287d565b60405180910390fd5b50565b600033905090565b816006600083815260200190815260200160002060006101000a81548173ffffffffffffffffffffffffffffffffffffffff021916908373ffffffffffffffffffffffffffffffffffffffff160217905550808273ffffffffffffffffffffffffffffffffffffffff166110de83610a27565b73ffffffffffffffffffffffffffffffffffffffff167f8c5be1e5ebec7d5bd14f71427d1e84f3dd0314c0f7b2291e5b200ac8c7c3b92560405160405180910390a45050565b60008061113083610a27565b90508073ffffffffffffffffffffffffffffffffffffffff168473ffffffffffffffffffffffffffffffffffffffff16148061117257506111718185610d90565b5b806111b057508373ffffffffffffffffffffffffffffffffffffffff16611198846104ee565b73ffffffffffffffffffffffffffffffffffffffff16145b91505092915050565b8273ffffffffffffffffffffffffffffffffffffffff166111d982610a27565b73ffffffffffffffffffffffffffffffffffffffff161461122f576040517f08c379a000000000000000000000000000000000000000000000000000000000815260040161122690612b89565b60405180910390fd5b600073ffffffffffffffffffffffffffffffffffffffff168273ffffffffffffffffffffffffffffffffffffffff16141561129f576040517f08c379a000000000000000000000000000000000000000000000000000000000815260040161129690612c1b565b60405180910390fd5b6112ac8383836001611904565b8273ffffffffffffffffffffffffffffffffffffffff166112cc82610a27565b73ffffffffffffffffffffffffffffffffffffffff1614611322576040517f08c379a000000000000000000000000000000000000000000000000000000000815260040161131990612b89565b60405180910390fd5b6006600082815260200190815260200160002060006101000a81549073ffffffffffffffffffffffffffffffffffffffff02191690556001600560008573ffffffffffffffffffffffffffffffffffffffff1673ffffffffffffffffffffffffffffffffffffffff168152602001908152602001600020600082825403925050819055506001600560008473ffffffffffffffffffffffffffffffffffffffff1673ffffffffffffffffffffffffffffffffffffffff16815260200190815260200160002060008282540192505081905550816004600083815260200190815260200160002060006101000a81548173ffffffffffffffffffffffffffffffffffffffff021916908373ffffffffffffffffffffffffffffffffffffffff160217905550808273ffffffffffffffffffffffffffffffffffffffff168473ffffffffffffffffffffffffffffffffffffffff167fddf252ad1be2c89b69c2b068fc378daa952ba7f163c4a11628f55a4df523b3ef60405160405180910390a46114ae838383600161190a565b505050565b6000612710905090565b60006004600083815260200190815260200160002060009054906101000a900473ffffffffffffffffffffffffffffffffffffffff169050919050565b611502611063565b73ffffffffffffffffffffffffffffffffffffffff16611520610b7a565b73ffffffffffffffffffffffffffffffffffffffff1614611576576040517f08c379a000000000000000000000000000000000000000000000000000000000815260040161156d90612c87565b60405180910390fd5b565b6000600860019054906101000a900473ffffffffffffffffffffffffffffffffffffffff16905081600860016101000a81548173ffffffffffffffffffffffffffffffffffffffff021916908373ffffffffffffffffffffffffffffffffffffffff1602179055508173ffffffffffffffffffffffffffffffffffffffff168173ffffffffffffffffffffffffffffffffffffffff167f8be0079c531659141344cd1fd0a4f28419497f9722a3daafe3b4186f6b6457e060405160405180910390a35050565b8173ffffffffffffffffffffffffffffffffffffffff168373ffffffffffffffffffffffffffffffffffffffff1614156116ad576040517f08c379a00000000000000000000000000000000000000000000000000000000081526004016116a490612cf3565b60405180910390fd5b80600760008573ffffffffffffffffffffffffffffffffffffffff1673ffffffffffffffffffffffffffffffffffffffff16815260200190815260200160002060008473ffffffffffffffffffffffffffffffffffffffff1673ffffffffffffffffffffffffffffffffffffffff16815260200190815260200160002060006101000a81548160ff0219169083151502179055508173ffffffffffffffffffffffffffffffffffffffff168373ffffffffffffffffffffffffffffffffffffffff167f17307eab39ab6107e8899845ad3d59bd9653f200f220920489ca2b5937696c318360405161179e9190611e61565b60405180910390a3505050565b6117b68484846111b9565b6117c284848484611910565b611801576040517f08c379a00000000000000000000000000000000000000000000000000000000081526004016117f890612d85565b60405180910390fd5b50505050565b600081600001549050919050565b6001816000016000828254019250508190555050565b611845828260405180602001604052806000815250611aa7565b5050565b60007f2a55205a000000000000000000000000000000000000000000000000000000007bffffffffffffffffffffffffffffffffffffffffffffffffffffffff1916827bffffffffffffffffffffffffffffffffffffffffffffffffffffffff191614806118bc57506118bb82611b02565b5b9050919050565b60008073ffffffffffffffffffffffffffffffffffffffff166118e5836114bd565b73ffffffffffffffffffffffffffffffffffffffff1614159050919050565b50505050565b50505050565b60006119318473ffffffffffffffffffffffffffffffffffffffff16611b6c565b15611a9a578373ffffffffffffffffffffffffffffffffffffffff1663150b7a0261195a611063565b8786866040518563ffffffff1660e01b815260040161197c9493929190612dfa565b602060405180830381600087803b15801561199657600080fd5b505af19250505080156119c757506040513d601f19601f820116820180604052508101906119c49190612e5b565b60015b611a4a573d80600081146119f7576040519150601f19603f3d011682016040523d82523d6000602084013e6119fc565b606091505b50600081511415611a42576040517f08c379a0000000000000000000000000000000000000000000000000000000008152600401611a3990612d85565b60405180910390fd5b805181602001fd5b63150b7a0260e01b7bffffffffffffffffffffffffffffffffffffffffffffffffffffffff1916817bffffffffffffffffffffffffffffffffffffffffffffffffffffffff191614915050611a9f565b600190505b949350505050565b611ab18383611b8f565b611abe6000848484611910565b611afd576040517f08c379a0000000000000000000000000000000000000000000000000000000008152600401611af490612d85565b60405180910390fd5b505050565b60007f01ffc9a7000000000000000000000000000000000000000000000000000000007bffffffffffffffffffffffffffffffffffffffffffffffffffffffff1916827bffffffffffffffffffffffffffffffffffffffffffffffffffffffff1916149050919050565b6000808273ffffffffffffffffffffffffffffffffffffffff163b119050919050565b600073ffffffffffffffffffffffffffffffffffffffff168273ffffffffffffffffffffffffffffffffffffffff161415611bff576040517f08c379a0000000000000000000000000000000000000000000000000000000008152600401611bf690612ed4565b60405180910390fd5b611c08816118c3565b15611c48576040517f08c379a0000000000000000000000000000000000000000000000000000000008152600401611c3f90612f40565b60405180910390fd5b611c56600083836001611904565b611c5f816118c3565b15611c9f576040517f08c379a0000000000000000000000000000000000000000000000000000000008152600401611c9690612f40565b60405180910390fd5b6001600560008473ffffffffffffffffffffffffffffffffffffffff1673ffffffffffffffffffffffffffffffffffffffff16815260200190815260200160002060008282540192505081905550816004600083815260200190815260200160002060006101000a81548173ffffffffffffffffffffffffffffffffffffffff021916908373ffffffffffffffffffffffffffffffffffffffff160217905550808273ffffffffffffffffffffffffffffffffffffffff16600073ffffffffffffffffffffffffffffffffffffffff167fddf252ad1be2c89b69c2b068fc378daa952ba7f163c4a11628f55a4df523b3ef60405160405180910390a4611da960008383600161190a565b5050565b6000604051905090565b600080fd5b600080fd5b60007fffffffff0000000000000000000000000000000000000000000000000000000082169050919050565b611df681611dc1565b8114611e0157600080fd5b50565b600081359050611e1381611ded565b92915050565b600060208284031215611e2f57611e2e611db7565b5b6000611e3d84828501611e04565b91505092915050565b60008115159050919050565b611e5b81611e46565b82525050565b6000602082019050611e766000830184611e52565b92915050565b600081519050919050565b600082825260208201905092915050565b60005b83811015611eb6578082015181840152602081019050611e9b565b83811115611ec5576000848401525b50505050565b6000601f19601f8301169050919050565b6000611ee782611e7c565b611ef18185611e87565b9350611f01818560208601611e98565b611f0a81611ecb565b840191505092915050565b60006020820190508181036000830152611f2f8184611edc565b905092915050565b6000819050919050565b611f4a81611f37565b8114611f5557600080fd5b50565b600081359050611f6781611f41565b92915050565b600060208284031215611f8357611f82611db7565b5b6000611f9184828501611f58565b91505092915050565b600073ffffffffffffffffffffffffffffffffffffffff82169050919050565b6000611fc582611f9a565b9050919050565b611fd581611fba565b82525050565b6000602082019050611ff06000830184611fcc565b92915050565b611fff81611fba565b811461200a57600080fd5b50565b60008135905061201c81611ff6565b92915050565b6000806040838503121561203957612038611db7565b5b60006120478582860161200d565b925050602061205885828601611f58565b9150509250929050565b60006020828403121561207857612077611db7565b5b60006120868482850161200d565b91505092915050565b600081519050919050565b600082825260208201905092915050565b6000819050602082019050919050565b6120c481611f37565b82525050565b60006120d683836120bb565b60208301905092915050565b6000602082019050919050565b60006120fa8261208f565b612104818561209a565b935061210f836120ab565b8060005b8381101561214057815161212788826120ca565b9750612132836120e2565b925050600181019050612113565b5085935050505092915050565b6000602082019050818103600083015261216781846120ef565b905092915050565b61217881611f37565b82525050565b6000602082019050612193600083018461216f565b92915050565b6000806000606084860312156121b2576121b1611db7565b5b60006121c08682870161200d565b93505060206121d18682870161200d565b92505060406121e286828701611f58565b9150509250925092565b6000806040838503121561220357612202611db7565b5b600061221185828601611f58565b925050602061222285828601611f58565b9150509250929050565b60006040820190506122416000830185611fcc565b61224e602083018461216f565b9392505050565b61225e81611e46565b811461226957600080fd5b50565b60008135905061227b81612255565b92915050565b6000806040838503121561229857612297611db7565b5b60006122a68582860161200d565b92505060206122b78582860161226c565b9150509250929050565b600080fd5b600080fd5b7f4e487b7100000000000000000000000000000000000000000000000000000000600052604160045260246000fd5b61230382611ecb565b810181811067ffffffffffffffff82111715612322576123216122cb565b5b80604052505050565b6000612335611dad565b905061234182826122fa565b919050565b600067ffffffffffffffff821115612361576123606122cb565b5b61236a82611ecb565b9050602081019050919050565b82818337600083830152505050565b600061239961239484612346565b61232b565b9050828152602081018484840111156123b5576123b46122c6565b5b6123c0848285612377565b509392505050565b600082601f8301126123dd576123dc6122c1565b5b81356123ed848260208601612386565b91505092915050565b600080600080608085870312156124105761240f611db7565b5b600061241e8782880161200d565b945050602061242f8782880161200d565b935050604061244087828801611f58565b925050606085013567ffffffffffffffff81111561246157612460611dbc565b5b61246d878288016123c8565b91505092959194509250565b600080604083850312156124905761248f611db7565b5b600061249e8582860161200d565b92505060206124af8582860161200d565b9150509250929050565b7f4e487b7100000000000000000000000000000000000000000000000000000000600052602260045260246000fd5b6000600282049050600182168061250057607f821691505b60208210811415612514576125136124b9565b5b50919050565b7f4552433732313a20617070726f76616c20746f2063757272656e74206f776e6560008201527f7200000000000000000000000000000000000000000000000000000000000000602082015250565b6000612576602183611e87565b91506125818261251a565b604082019050919050565b600060208201905081810360008301526125a581612569565b9050919050565b7f4552433732313a20617070726f76652063616c6c6572206973206e6f7420746f60008201527f6b656e206f776e6572206f7220617070726f76656420666f7220616c6c000000602082015250565b6000612608603d83611e87565b9150612613826125ac565b604082019050919050565b60006020820190508181036000830152612637816125fb565b9050919050565b7f4e487b7100000000000000000000000000000000000000000000000000000000600052603260045260246000fd5b7f4e487b7100000000000000000000000000000000000000000000000000000000600052601160045260246000fd5b60006126a782611f37565b91507fffffffffffffffffffffffffffffffffffffffffffffffffffffffffffffffff8214156126da576126d961266d565b5b600182019050919050565b7f4552433732313a2063616c6c6572206973206e6f7420746f6b656e206f776e6560008201527f72206f7220617070726f76656400000000000000000000000000000000000000602082015250565b6000612741602d83611e87565b915061274c826126e5565b604082019050919050565b6000602082019050818103600083015261277081612734565b9050919050565b600061278282611f37565b915061278d83611f37565b9250817fffffffffffffffffffffffffffffffffffffffffffffffffffffffffffffffff04831182151516156127c6576127c561266d565b5b828202905092915050565b7f4e487b7100000000000000000000000000000000000000000000000000000000600052601260045260246000fd5b600061280b82611f37565b915061281683611f37565b925082612826576128256127d1565b5b828204905092915050565b7f4552433732313a20696e76616c696420746f6b656e2049440000000000000000600082015250565b6000612867601883611e87565b915061287282612831565b602082019050919050565b600060208201905081810360008301526128968161285a565b9050919050565b7f4552433732313a2061646472657373207a65726f206973206e6f74206120766160008201527f6c6964206f776e65720000000000000000000000000000000000000000000000602082015250565b60006128f9602983611e87565b91506129048261289d565b604082019050919050565b60006020820190508181036000830152612928816128ec565b9050919050565b600061293a82611f37565b915061294583611f37565b9250828210156129585761295761266d565b5b828203905092915050565b7f4e6f7420656e6f75676820746f6b656e206c65667420746f2062757900000000600082015250565b6000612999601c83611e87565b91506129a482612963565b602082019050919050565b600060208201905081810360008301526129c88161298c565b9050919050565b600081905092915050565b60008190508160005260206000209050919050565b600081546129fc816124e8565b612a0681866129cf565b94506001821660008114612a215760018114612a3257612a65565b60ff19831686528186019350612a65565b612a3b856129da565b60005b83811015612a5d57815481890152600182019150602081019050612a3e565b838801955050505b50505092915050565b6000612a7a82846129ef565b915081905092915050565b7f4f776e61626c653a206e6577206f776e657220697320746865207a65726f206160008201527f6464726573730000000000000000000000000000000000000000000000000000602082015250565b6000612ae1602683611e87565b9150612aec82612a85565b604082019050919050565b60006020820190508181036000830152612b1081612ad4565b9050919050565b7f4552433732313a207472616e736665722066726f6d20696e636f72726563742060008201527f6f776e6572000000000000000000000000000000000000000000000000000000602082015250565b6000612b73602583611e87565b9150612b7e82612b17565b604082019050919050565b60006020820190508181036000830152612ba281612b66565b9050919050565b7f4552433732313a207472616e7366657220746f20746865207a65726f2061646460008201527f7265737300000000000000000000000000000000000000000000000000000000602082015250565b6000612c05602483611e87565b9150612c1082612ba9565b604082019050919050565b60006020820190508181036000830152612c3481612bf8565b9050919050565b7f4f776e61626c653a2063616c6c6572206973206e6f7420746865206f776e6572600082015250565b6000612c71602083611e87565b9150612c7c82612c3b565b602082019050919050565b60006020820190508181036000830152612ca081612c64565b9050919050565b7f4552433732313a20617070726f766520746f2063616c6c657200000000000000600082015250565b6000612cdd601983611e87565b9150612ce882612ca7565b602082019050919050565b60006020820190508181036000830152612d0c81612cd0565b9050919050565b7f4552433732313a207472616e7366657220746f206e6f6e20455243373231526560008201527f63656976657220696d706c656d656e7465720000000000000000000000000000602082015250565b6000612d6f603283611e87565b9150612d7a82612d13565b604082019050919050565b60006020820190508181036000830152612d9e81612d62565b9050919050565b600081519050919050565b600082825260208201905092915050565b6000612dcc82612da5565b612dd68185612db0565b9350612de6818560208601611e98565b612def81611ecb565b840191505092915050565b6000608082019050612e0f6000830187611fcc565b612e1c6020830186611fcc565b612e29604083018561216f565b8181036060830152612e3b8184612dc1565b905095945050505050565b600081519050612e5581611ded565b92915050565b600060208284031215612e7157612e70611db7565b5b6000612e7f84828501612e46565b91505092915050565b7f4552433732313a206d696e7420746f20746865207a65726f2061646472657373600082015250565b6000612ebe602083611e87565b9150612ec982612e88565b602082019050919050565b60006020820190508181036000830152612eed81612eb1565b9050919050565b7f4552433732313a20746f6b656e20616c7265616479206d696e74656400000000600082015250565b6000612f2a601c83611e87565b9150612f3582612ef4565b602082019050919050565b60006020820190508181036000830152612f5981612f1d565b905091905056fea2646970667358221220b9966a1fc1fed716b3627631dc4da799eb58dadbf5aeaf3e97fa30ffa38420f564736f6c63430008090033a2646970667358221220311207d46dc7d19a1a9cbb94bca286e5e6d7d49f137ab941760a1a1565bf8fb164736f6c63430008090033",
  "immutableReferences": {},
  "source": "// SPDX-License-Identifier: MIT\npragma solidity ^0.8.9;\n\nimport \"./MyTokenTemplate.sol\";\nimport \"./MyTokenRoyalties.sol\";\n\ncontract MyTokenFactory {\n    MyTokenTemplate[] private myTokenTemplates;\n\n    MyTokenRoyalties private mtr;\n\n    struct MyTokenTemplateExtended {\n        address contractAddress;\n        string name;\n        string symbol;\n        string uri;\n        uint256 totalSupply;\n        uint256 availableSupply;\n        uint256 price;\n        uint256 sellBalance; //lo que se ha vendido de cada cancin\n        uint256 royaltyBalance; // el dinero a repartir generado = lo que habia que repartir - lo repartido + lo nuevo a repartir en la siguiente vez que se reciben royalties del sgae\n    }\n\n    mapping(address => MyTokenTemplateExtended) public myTokenTemplateExtendeds;\n\n    constructor(address _myTokenRoyalties) {\n        mtr = MyTokenRoyalties(_myTokenRoyalties);\n    }\n\n    /////////////////////////////////////////////////////////\n    //MyTokenTemplate functions\n    /////////////////////////////////////////////////////////\n\n    function createMyTokenTemplate(\n        string memory _name,\n        string memory _symbol,\n        string memory _uri,\n        uint256 _totalSupply,\n        uint256 _price\n    ) public {\n        //Create the new token template\n        MyTokenTemplate NewMyTokenTemplate = new MyTokenTemplate(\n            _name,\n            _symbol,\n            _uri,\n            _totalSupply\n        );\n\n        myTokenTemplates.push(NewMyTokenTemplate);\n\n        MyTokenTemplateExtended\n            storage newMyTokenTemplateExtended = myTokenTemplateExtendeds[\n                address(NewMyTokenTemplate)\n            ];\n\n        newMyTokenTemplateExtended.contractAddress = address(\n            NewMyTokenTemplate\n        );\n        newMyTokenTemplateExtended.name = _name;\n        newMyTokenTemplateExtended.symbol = _symbol;\n        newMyTokenTemplateExtended.uri = _uri;\n        newMyTokenTemplateExtended.totalSupply = _totalSupply;\n        newMyTokenTemplateExtended.availableSupply = _totalSupply;\n        newMyTokenTemplateExtended.price = _price;\n        newMyTokenTemplateExtended.sellBalance = 0;\n        newMyTokenTemplateExtended.royaltyBalance = 0;\n    }\n\n    function getUserNFTIds(\n        address _address\n    ) public view returns (uint256[] memory numNFTs) {\n        MyTokenTemplate myTokenTemplate = MyTokenTemplate(_address);\n\n        return myTokenTemplate.getUserTokensIds(msg.sender);\n    }\n\n    function getMyTokenTemplateList() public view returns (address[] memory) {\n        uint256 len = myTokenTemplates.length;\n\n        if (len == 0) {\n            // Return an empty array\n            return new address[](0);\n        } else {\n            address[] memory result = new address[](len);\n            uint256 resultIndex = 0;\n\n            for (uint256 i = 0; i < len; i++) {\n                result[resultIndex] = address(myTokenTemplates[i]);\n                resultIndex++;\n            }\n\n            return result;\n        }\n    }\n\n    function getMyTokenTemplateDetails(\n        address _address\n    )\n        public\n        view\n        returns (MyTokenTemplateExtended memory myTokenTemplateExtended)\n    {\n        return myTokenTemplateExtendeds[_address];\n    }\n\n    /////////////////////////////////////////////////////////\n    //Buy nfts functions\n    /////////////////////////////////////////////////////////\n\n    function buyMyTokenTemplateNFTs(\n        address _address,\n        uint256 _amount\n    ) public payable {\n        MyTokenTemplate myTokenTemplate = MyTokenTemplate(_address);\n\n        require(_amount > 0, \"The amount of tokens should be bigger than 0\");\n        require(\n            _amount < myTokenTemplateExtendeds[_address].availableSupply,\n            \"The amount of tokens should be less than available supply\"\n        );\n        require(\n            msg.value == myTokenTemplateExtendeds[_address].price * _amount,\n            \"You should pay the exact amount of money\"\n        );\n\n        myTokenTemplate.createNFT(msg.sender, _amount);\n        myTokenTemplateExtendeds[_address].sellBalance += msg.value;\n        myTokenTemplateExtendeds[_address].availableSupply -= _amount;\n    }\n\n    function addMyTokenTemplateRoyaltyBalance(\n        address _myTokenTemplate\n    ) public payable {\n        myTokenTemplateExtendeds[_myTokenTemplate].royaltyBalance += msg.value;\n        require(msg.value > 0, \"RoyaltyAmount should be bigger than 0\");\n\n        uint256 totalSupply = myTokenTemplateExtendeds[_myTokenTemplate]\n            .totalSupply;\n        uint256 amountPerToken = msg.value / totalSupply;\n\n        mtr.updateAssignedRoyalties(\n            _myTokenTemplate,\n            totalSupply,\n            amountPerToken\n        );\n    }\n\n    /////////////////////////////////////////////////////////\n    //Function to claim portfolio royalties\n    /////////////////////////////////////////////////////////\n\n    function claimRoyalties(\n        address _myTokenTemplate,\n        uint256[] memory tokenIds\n    ) public {\n        uint256 totalAmountToReceive = 0;\n\n        for (uint256 i = 0; i < tokenIds.length; i++) {\n            uint256 tokenId = tokenIds[i];\n\n            // Check that the caller is the owner of each token\n            require(\n                MyTokenTemplate(_myTokenTemplate).ownerOf(tokenId) ==\n                    msg.sender,\n                \"Caller not the owner of token\"\n            );\n\n            //get totalAmountToReceive\n            uint256 amountToReceive = mtr.getAmountToReceive(\n                _myTokenTemplate,\n                tokenId\n            );\n\n            totalAmountToReceive += amountToReceive;\n        }\n        // Ensure that the contract has enough balance to pay\n        require(\n            address(this).balance >= totalAmountToReceive,\n            \"Contract has insufficient balance\"\n        );\n\n        address payable _to = payable(msg.sender);\n        _to.transfer(totalAmountToReceive);\n    }\n\n    function getRoyaltiesInfo(\n        address _myTokenTemplate,\n        uint256 tokenId\n    ) public view returns (uint256 royaltyInfobyToken) {\n        return mtr.getAmountToReceiveDetails(_myTokenTemplate, tokenId);\n    }\n}\n",
  "sourcePath": "/Users/guillermodeleon/Desktop/WILLY CREDITSONG/Credit Song WEB/CreditSongTeresa-8/src/backend/contracts/MyTokenFactory.sol",
  "compiler": {
    "name": "solc",
    "version": "0.8.9+commit.e5eed63a.Emscripten.clang"
  },
  "schemaVersion": "3.4.14",
  "updatedAt": "2023-07-26T07:13:14.138Z",
  "networkType": "ethereum",
  "devdoc": {
    "kind": "dev",
    "methods": {},
    "version": 1
  },
  "userdoc": {
    "kind": "user",
    "methods": {},
    "version": 1
  }
}